:020000040800F2
:1000000028640020E1010008E32E0008412B0008CD
:10001000E12E0008B9090008F139000800000000CD
:10002000000000000000000000000000693000082F
:10003000E10A000800000000E52E00086B3000080F
:10004000FB010008FB010008FB010008FB010008A0
:10005000FB010008FB010008FB010008FB01000890
:10006000FB010008FB010008FB010008FB01000880
:100070000D0A0008FB010008FB010008FB01000855
:10008000190A0008FB010008FB010008FB01000839
:10009000FB010008FB010008FB010008FB01000850
:1000A000FB010008FB010008FB010008FB01000840
:1000B000213100082D31000839310008FB0100080A
:1000C000FB010008FB010008FB010008FB01000820
:1000D000FB01000895380008AD380008C538000855
:1000E000FB010008FB010008FB010008FB01000800
:1000F000FB010008FB010008FB010008FB010008F0
:10010000FB010008FB01000845310008FB01000865
:10011000FB010008FB010008FB010008FB010008CF
:10012000FB010008250A0008310A0008FB0100084D
:10013000FB010008FB010008FB010008FB010008AF
:10014000FB010008FB010008FB010008FB0100089F
:10015000FB010008FB010008FB010008DD38000876
:10016000FB010008FB010008FB010008FB0100087F
:10017000FB010008FB010008FB010008FB0100086F
:10018000FB010008FB010008FB010008FB0100085F
:10019000FB010008FB010008FB010008FB0100084F
:1001A000FB010008FB010008FB010008FB0100083F
:1001B000FB010008FB010008FB010008FB0100082F
:1001C000FB010008FB010008DFF810D000F062FB23
:1001D0000048004719530008AFF30080286400204E
:1001E0000648804706480047FEE7FEE7FEE7FEE7D1
:1001F000FEE7FEE7FEE7FEE7FEE7FEE71131000857
:10020000C90100082DE9F05F0546002092469B4693
:1002100088460646814640241BE02846414647461C
:10022000224600F01AFA53465A46C01A914110D39A
:1002300011461846224600F001FA2D1A67EB010814
:100240004F4622460120002100F0F8F917EB000983
:100250004E41201EA4F10104DFDC484631462A4607
:100260004346BDE8F09FA0F14101192900D8203094
:100270007047D2B201E000F8012B491EFBD2704753
:100280000022F6E710B513460A4604461946FFF762
:10029000F0FF204610BD421E12F8013F002BFBD19B
:1002A00011F8013B02F8013B002BF9D1704730B542
:1002B00005462A460B4612F8010B13F8014B08B10C
:1002C000A042F8D01CB1002802D06D1CF1E72846EE
:1002D00030BDCAB2401E10F8011F8A4202D0002968
:1002E000F9D100207047421C10F8011B0029FBD1F6
:1002F000801A704710B5044600E0401C0378002BBC
:10030000FBD100E0401C521E04D311F8013B0370E6
:10031000002BF7D100210170204610BD034611F8D3
:10032000012B00F8012B002AF9D11846704730B58F
:1003300005460020034600E05B1C934205D2EC5CBE
:10034000C85C201A01D1002CF6D130BD2DE9FE4F3A
:10035000804681EA0300C00F0C46009021F0004166
:1003600023F00045B8EB0200A94105D240462146E2
:1003700090461C460B46024623F00040104347D0EF
:10038000270DC7F30A00C3F30A510290401A0190E7
:1003900040286BDAC3F3130040F4801B00989246A8
:1003A00020B10023D2EB030A63EB0B0B01985946F3
:1003B000C0F14002504600F041F906460D46504655
:1003C0005946019A00F059F910EB080061410024E8
:1003D00087EA115284EAE7731A4340D0009A62B365
:1003E000019A012A4FEA075215DC001B61EB02015A
:1003F0004FF0004202EA0752CDE90042001C41F5ED
:10040000801132462B4600F059F903B0BDE8F08F59
:1004100040462146F9E7001B61EB0201001C41F553
:10042000801300185B412018A2F5001747EB030169
:1004300040EAD570B6196D4111E06D084FEA3606F5
:1004400045EAC0754FEA0752001B61EB0201001C30
:1004500041F5801149084FEA3000001951413246F8
:100460002B4603B0BDE8F04F00F019B90098012207
:1004700040000023D0EB020263EBE07300982146BA
:100480004FEAE074B8EB000061EB0401E9E783F0A8
:1004900000435BE781F0004158E72DE9FE4F81EA18
:1004A000030404F0004421F0004100944FF0000BDD
:1004B00023F0004350EA01045ED052EA03045BD00B
:1004C000C3F30A54C1F30A552C44A4F2F334019443
:1004D000A0FB0254C1F3130141F48011C3F31303D1
:1004E00043F4801301FB024400FB034E840A970A85
:1004F00044EA815447EA8357A4FB076802958D0AB2
:1005000005FB07854FEA932C04FB0C542705029D3D
:100510004FEA065847EA1637B5EB08056EEB070CAD
:10052000870E920E47EA811742EA8312A7FB020167
:10053000B6EB0B0164EB00042B0D43EA0C335E18A1
:1005400044EB1C50DA465146E7FB0201C5F31304A5
:100550004FEA0B3343EA14534FEA0432019C43EA57
:100560000603A4F10C040294009CCDE900B400F051
:10057000A5F803B0BDE8F08F00200146F9E70EB5FD
:10058000C10F80EAE0700844CA07002140F23343FB
:100590008DE80E000A460B4600F090F803B000BD4F
:1005A00070B5C1F30A5201F000450024C1F31301F4
:1005B00040F2FF3341F480119A4201DA002070BD0D
:1005C00040F233439A42A2F2334203DC524200F03B
:1005D00044F800E090402C43F1D0404270BD000050
:1005E00030B5041E71F1000404DB4FF000444042BA
:1005F00064EB0101141E73F1000405DB1C464FF08F
:100600000043524263EB0403994208BF904230BD5D
:1006100030B50B46014600202022012409E021FAD2
:1006200002F59D4205D303FA02F5491B04FA02F5CF
:100630002844151EA2F10102F1DC30BD202A04DBA2
:10064000203A00FA02F1002070479140C2F12003E5
:1006500020FA03F3194390407047202A04DB203A24
:1006600021FA02F00021704721FA02F3D040C2F1D2
:1006700020029140084319467047202A06DBCB1719
:10068000203A41FA02F043EAE07306E041FA02F34D
:10069000D040C2F12002914008431946704710B57E
:1006A000141E73F1000408DA401C41F10001921895
:1006B0005B411A4301D120F0010010BD2DE9F04D3E
:1006C00092469B4611B1B1FA81F202E0B0FA80F293
:1006D00020329046FFF7B2FF04460F4640EA0A0078
:1006E00041EA0B0153465A46084313D0114653EAD8
:1006F000010019D0C8F140025046FFF7AEFF054691
:100700000E46504659464246FFF798FF084305D02B
:10071000012004E020463946BDE8F08D0020054365
:1007200046EAE0762C4337430A986305E40AA0EBD7
:1007300008000022FD0A44EA47540A3002D500208E
:100740000146E9E7010510196941DDE9084500198D
:100750006941BDE8F04DA2E72DE9F04D81EA0304BF
:1007600004F0004B21F0004514464FF0000A23F03E
:10077000004150EA050220D054EA01021DD0C5F321
:100780000A570246C5F31303C1F31300C1F30A5617
:1007900040F4801543F48013A7EB0608101BD646DF
:1007A00008F2FD3873EB050002D308F1010801E0FF
:1007B00092185B41B8F1000F03DA00200146BDE852
:1007C000F08D00204FF48011064684460EE0171B82
:1007D00073EB050705D3121B63EB050306434CEAD5
:1007E000010C49084FEA300092185B4150EA0107BA
:1007F000EDD152EA030012D082EA040083EA050137
:10080000084305D0101BAB4106D20122002306E0AD
:1008100000224FF0004302E06FF0010253101AEB88
:1008200006004CEB085110EB0A0041EB0B01BDE850
:10083000F04DFFF734BF70B521F0004303430CD0F7
:10084000C1F30A550024D5EB040564EB0403D61765
:10085000AD1AB34102DB0020014670BD201841EB08
:10086000025170BDC1F30A52C1F3130140F2FF33CC
:1008700041F480119A4202DA00200146704740F2AA
:1008800033439A42A2F2334202DC5242FFF7E5BE02
:10089000FFF7D4BE064C074D06E0E06840F00103C8
:1008A00094E8070098471034AC42F6D3FFF790FC69
:1008B000F05E0008105F00082DE9F04D00231A4695
:1008C0001B1A8A4103DB00200146BDE8F08DC1F30D
:1008D0000A52C1F3130141F480154FF0000BD10708
:1008E00002D100186D41521E0027044640F2FF114C
:1008F000384601EB620A3E468046024600204FF42D
:100900008011FFF7AAFEC2197141BB1846EB010026
:10091000B4EB030C75EB000C04D3E41A65EB000593
:1009200017460E46241908F101006D41804634280F
:10093000E3DDF91946EB0600091BA84103D24FF08D
:10094000FF32134601E0002213461BEB070046EB83
:100950000A51BDE8F04DFFF7A2BE70B58D1810F832
:10096000014B14F0030201D110F8012B231106D121
:1009700010F8013B03E010F8016B01F8016B521E07
:10098000F9D1ABB110F8012B04F00C048A1A0C2C2D
:1009900003D0A2EB84129B1C08E010F8014BA2EBE1
:1009A0000422F8E712F8014B01F8014B5B1EF9D560
:1009B000A942D4D3002070BDFEE7000010B5064C5C
:1009C0000648E189491CFFF75BFC0020E081A0613B
:1009D00060622062E06110BD0C000020540B00201A
:1009E00070B5084C206908B104F0AAFB0648002540
:1009F0004FF4C0612561FFF743FC6561E570257127
:100A000070BD00000C00002054110020014800F0CF
:100A10008DB90000641B0020014800F087B9000078
:100A2000041B0020014800F081B90000C41B002015
:100A3000014800F07BB90000A41A002001681823C7
:100A4000CAB2103AB2FBF3F2054B6FF30901032A65
:100A50009B5CC36500D9091D81650846704700008D
:100A6000E75D000810B583694FF0C074826A0146E3
:100A7000002053B1B3F5005F15D072B1012A0CD03C
:100A8000022A0AD0032A09D104E01AB1012A06D0A9
:100A9000022A03D1C96AC90100D5012010BDC96A63
:100AA000A142FAD010BD002AF7D0012AF2D0022AC2
:100AB000F3D0032AF3D010BD30B50468256825F4BF
:100AC00080252560046863608368402B036803D039
:100AD00099600068C26030BD9A600068C16030BD36
:100AE000704772B6FEE7000010B52DED028B86B0A0
:100AF0000446B0EE418AF0EE618A53EC102B0FA150
:100B0000684602F087FF53EC182B0CA103A802F0F3
:100B100081FF69462046FFF7BEFB0AA12046FFF78A
:100B2000BAFB03A92046FFF7B6FB07A12046FFF753
:100B3000B2FB06B0BDEC028B10BD0000252E366660
:100B4000000000002C0000005D7D7D5D7D220D0A0F
:100B50000000000070B525481DA1FFF7A8FB0100AB
:100B600018D02348FFF7DAFB214822A1FFF79FFBAB
:100B7000002529464A1C4554D1B20329FAD91C49FB
:100B80001DA002F037FF1A4804F02CFB214C206115
:100B900010B106E0002070BD154804F023FB206171
:100BA00090B11DA104F001FB1DA104F0FEFA6061EB
:100BB000024621691EA002F01DFF606904F0EDFAF3
:100BC000E0700120257170BD23A002F013FFE1E762
:100BD0007B227061726173223A7B226C6F63617455
:100BE000696F6E5F6172726179223A00540B002066
:100BF00054110020220D0A0067657420636C6F7524
:100C000064206A736F6E20646174613A200A2573F0
:100C10000A0000000C000020706172617300000087
:100C20006C6F636174696F6E5F61727261790000ED
:100C3000726F6F7420616464726573733A202570FB
:100C40002C20617272617920616464726573733AF9
:100C50002025700A000000006A736F6E20706172B8
:100C60007365206661696C65642121210A000000BA
:100C70002DE9F041876D044600F01CFB064694F810
:100C800035000025022806D080206065012084F808
:100C90003450BDE8F0812068016821F01601016040
:100CA0002068416921F080014161206C08B9A06C85
:100CB00020B12068016821F0080101602068016806
:100CC00021F0010101600CE000F0F4FA801B05281E
:100CD00007D920216165032084F8350084F8345059
:100CE000D7E720680068C007EED194F85C203F2069
:100CF00001219040B86084F83510002084F8345009
:100D0000C7E790F83510022903D080214165012002
:100D10007047052180F835100068016821F0010155
:100D2000016000207047406D704700002DE9F843D6
:100D300004464FF00009644B0820CDF800904FF4B2
:100D40001652A56D94F85C101B682E68B3FBF2F781
:100D500000FA01F131420FD021680A6852070BD521
:100D60000A6822F004020A6094F85C108840A860C7
:100D7000606D40F00100606594F85C104FF0010870
:100D800008FA01F0304208D021684969090604D503
:100D9000A860606D40F00200606594F85C1004206B
:100DA0008840304208D021680968890704D5A860C6
:100DB000606D40F00400606594F85C10102088407D
:100DC000304218D021680968090714D5A860206846
:100DD0000168490304D50068000308D5A16C07E049
:100DE0000168C90503D4016821F008010160216C84
:100DF00009B12046884794F85C1020208840304292
:100E000031D021680968C9062DD5A86094F835004D
:100E100005282068016806D0490347D5006800030B
:100E20001DD4616C1CE021F016010160206841694D
:100E300021F080014161206C08B9A06C20B12068CC
:100E4000016821F00801016094F85C303F229A406B
:100E5000AA6084F8358084F83490216D1FE0E16B3E
:100E600009B120468847606D00282BD0606DC0070F
:100E700014D0052084F835002068016821F00101B4
:100E800001600098401C0090B84203D820680068B8
:100E9000C007F6D184F8358084F83490E16C0029DD
:100EA00010D001B02046BDE8F04308470168C905ED
:100EB000D5D4036823F01003036084F8358084F8E8
:100EC0003490CCE7BDE8F883400500202DE9F047D9
:100ED000044600F0EFF9054664B102214FF0000925
:100EE00084F8351084F834902068016821F00101FD
:100EF00001600EE00120BDE8F08700BF00F0DAF9E4
:100F0000401B052805D920216165032084F83500A0
:100F1000F1E720680068C007F0D1D4E90020D4E9E7
:100F20000251D4E9043C284304F11805194308434D
:100F3000116895E8E00140EA0C001C4B2843194079
:100F400040EA060040EA0700B8F1040F40EA010059
:100F500003D1D4E90B13194308431060206801261C
:100F6000656A4069042D20F0070045EA00050CD1B0
:100F7000D4E90A01054341B12046FFF773FD20B1D2
:100F80004020606584F83560B4E7206845612046FC
:100F9000FFF754FD94F85C303F229A408260C4F819
:100FA000549084F835600020A5E700003F8010F0E1
:100FB0002DE9F041044690F8340000250128A66D83
:100FC0000ED094F835C00127002084F83470BCF1AD
:100FD000010F07D0022584F834002846BDE8F081CF
:100FE0000220FBE7022784F8357060652046FFF792
:100FF00063FD94F85C103F208840B0602068016871
:1010000041F0160101602068416941F080014161B1
:10101000206C20B12068016841F00801016020685F
:10102000016841F001010160D7E7000070B5044696
:1010300000F040F90546601C02D0044800780444E2
:1010400000F038F9401BA042FAD370BD34050020EF
:101050002DE9F84FDFF80CB2012403254FF00F0AF9
:1010600000220BF1040E00BF0B6804FA02F63340B5
:10107000B34278D10F7907F00307012F01D0022F77
:101080001AD187684FEA4209D1F80CC005FA09F86D
:1010900027EA08070CFA09FC4CEA070CC0F808C05C
:1010A000476891F804C0B743CCF3001C0CFA02FC6B
:1010B0004CEA070CC0F804C00E79F643B6070BD013
:1010C000C6684FEA420C8F6805FA0CF826EA080653
:1010D00007FA0CF73743C7600E7906F00306022EB5
:1010E00012D1D6084FEA427800EB860600960F69C7
:1010F000D6F820904FEAD8660AFA06FCB74029EAEB
:101100000C063743009E37620F7906684FEA420C9F
:1011100007F0030705FA0CF807FA0CF726EA0806A9
:10112000374307604E6816F4403F1CD04E4E376878
:1011300047F480473760366822F00308970706F4C3
:1011400080460096494E3F0F4644B146D6F808689F
:10115000DFF81C810AFA07FC404526EA0C0603D199
:101160004FF0000C41E076E0DFF808C1604502D1A5
:101170004FF0010C39E0DFF800C1604502D14FF0BB
:10118000020C32E0DFF8F4C0604502D14FF0030CEE
:101190002BE0DFF8ECC0604502D14FF0040C24E0F6
:1011A000DFF8E0C0604502D14FF0050C1DE0DFF82C
:1011B000D8C0604502D14FF0060C16E0DFF8CCC075
:1011C000604502D14FF0070C0FE0DFF8C4C0604566
:1011D00002D14FF0080C08E0DFF8B8C0604502D13A
:1011E0004FF0090C01E04FF00A0C0CFA07FC4CEA36
:1011F000060CC9F808C84F68DBF80060FF0226EA51
:10120000030600D51E437746CBF80060D1F804C032
:10121000DEF800605FEA8C2C26EA030600D51E4348
:10122000DFF840C03E60ACF1040C4F68DCF80060B1
:10123000BF0326EA030600D51E430A4FCCF8006020
:10124000083FD1F804C03E685FEACC3C26EA0306BA
:1012500000D51E433E60521C102AFFF405AFBDE8C6
:10126000F88F0000083C0140443802400030014043
:10127000000002400004024000080240000C02404E
:10128000001002400014024000180240001C0240FE
:101290000020024000240240426921EA02030A4081
:1012A00043EA0241816170470AB1816170470904D4
:1012B000FBE700000148806870470000340500200B
:1012C000024881680278114481607047340500202B
:1012D000032010B500F06EF80F2000F005F800F0C4
:1012E00023F8002010BD000070B50D4D04464FF4EA
:1012F0007A700C4A29781268B0FBF1F0B2FBF0F07A
:1013000000F0CAFD48B9102C07D200222146501E19
:1013100000F030F800206C6070BD012070BD00004E
:1013200034050020400500200A4808B5016841F056
:1013300080510160006800F0805000900548001D59
:10134000016841F480410160006800F48040009031
:1013500008BD000040380240002809DB410900F0C8
:101360001F028900012001F1E0219040C1F8000135
:10137000704700000E4BF0B41B680D46C3F3022308
:10138000C3F10706042E00D90426191D072901D22E
:10139000002300E0DB1E012404FA06F19C40491EF4
:1013A0002940641E994014402143F0BC02F05EBB0A
:1013B0000CED00E0064900F0070210B54FF6FF04FF
:1013C0000868044B204040EA02201843086010BD22
:1013D0000CED00E00000FA051848F8B5016841F08E
:1013E000805101600068164C00F080500090206829
:1013F00040F480302060FFF75DFF4FF47A760546B9
:1014000005E000BFFFF756FF401BB0420FD86068F1
:10141000C003F7D5206840F400302060FFF74AFF92
:10142000054606E0FFF746FF401BB04201D9032006
:10143000F8BD60688003F5D50020F8BD4038024053
:10144000007000402DE9F84F04460078DFF824943E
:101450004FF000063746C0070ED0D9F8001021F42F
:101460000001C9F80010D9F80010626B1143C9F8E7
:101470000010606B00B90126FE4D20688435000322
:101480000ED5E16B286820F4401008432860E06B1B
:10149000B0F5801F01D010B102E0012600E0012765
:1014A00020684FF4800BC0020CD5216C286820F412
:1014B000400008432860206C584501D1012601E016
:1014C00000B901272068C10100D50126800666D534
:1014D000E8483830016841F0805101600068DFF869
:1014E00098A300F080500090DAF8001041F4807169
:1014F000CAF80010FFF7DEFE804605E0FFF7DAFECF
:10150000A0EB080064287DD8DAF80000C005F5D506
:10151000DFF8608308F16808D8F8000010F4407024
:101520002AD0218E01F44071814225D0D8F80010D4
:10153000D8F8002021F4407142F48032C8F800202D
:10154000D8F8002022F48032C8F80020C8F8001033
:10155000D8F80000C0070FD0FFF7ACFE824607E0C6
:10156000FFF7A8FEA0EB0A0141F288308142CAD8F9
:10157000D8F800008007F3D5206BC0F301210329C0
:101580007ED0D9F8001021F4F811C9F80010228E8D
:10159000D8F80010C2F30B021143C8F800102078ED
:1015A000C00607D5286820F0807028602868A16BE5
:1015B000084328602188AF488830490405D5626E09
:1015C000016821F44031114301602188090405D5E7
:1015D000A26E016821F44021114301602168C90312
:1015E00005D5E26E016821F44011114301602168C4
:1015F000890305D5226F016821F440011143016080
:10160000217800E016E1490605D5626C016821F0F9
:101610000301114301602178090605D5A26C016818
:1016200021F00C01114301602188C90505D5E26C48
:10163000016821F03001114301602188890505D539
:10164000226D016821F0C001114301602188490524
:1016500005D5626D016821F4407111430160218854
:10166000090505D5A26D016821F4406111430160AF
:101670002188C90407D5E26D016821F4405100E0DA
:101680004AE0114301602188890405D5226E016872
:1016900021F44041114301602168490205D5A26F40
:1016A000016821F080611143016021684FF0006AF8
:1016B000890209D5E26F016821F0006111430160E0
:1016C000E16F514500D1012721680A0700D50127A4
:1016D000490305D5626F016821F040711143016033
:1016E0002168090206D5D4F88020016821F08051D4
:1016F00011430160DFF88491012E02D0206880013F
:101700007ED5D9F800004E4620F08060C9F8000070
:10171000FFF7D0FD80460FE0594AD9F8003010405D
:1017200023F4F8120243C9F8002030E7FFF7C2FDA6
:10173000A0EB080064287DD830680001F6D4217839
:101740004C487C30C90712D0616B81B9237A62683A
:101750000168D0F800C09201C1F3014142EA0142A0
:10176000CCF3036142EA016141EA0371016021683F
:101770000A0303D5E26BB2F5801F04D0C9021AD563
:10178000216C594517D16368016894F80CC0026850
:101790009B01C1F3014143EA0141C2F3027241EAF4
:1017A0000C6141EA027101602968626A21F01F013F
:1017B000521E114329602168C90110D5238A62682D
:1017C0000168D0F800C09201C1F3036142EA03420C
:1017D00042EA0162CCF3027142EA017101602168C0
:1017E00089010CD56168228A237B94F808C089019D
:1017F00041EA024141EA036141EA0C71016000E003
:1018000011E03168B04641F080613160FFF752FD70
:10181000064604E0FFF74EFD801B64280AD8D8F87E
:1018200000000001F6D56FB3D9F800004E4620F055
:10183000805000E07BE0C9F80000FFF73BFD074661
:1018400005E000BFFFF736FDC01B64286FD8306885
:10185000C0438000F6D50748216880300A0301D5CF
:10186000E26B1AB1C90225D5216C19BB6369016805
:10187000277E08E00838024000700040003802402F
:10188000FFFCFF0F5AE00268C1F301419B0143EAEC
:101890000143C2F3027143EA076242EA0171016047
:1018A00029686FF0FF03A26A21F4F85103EB0222CA
:1018B000114329602168890212D5E16F51450FD18A
:1018C000238C6269016807689201C1F3036142EAEF
:1018D000034242EA0162C7F3027142EA0171016008
:1018E0002178090716D561690268D0F800C08B011C
:1018F000277FC2F30362CCF3014143EA014141EA8D
:10190000026141EA077101602868E16A20F4403011
:1019100008432860306840F080503060FFF7CAFC10
:10192000044607E0FFF7C6FC001B642802D9032029
:10193000BDE8F88F3068C0438000F3D40020F7E79B
:101940002DE9F04705000F4663D0444E306800F0A3
:101950000F00B84209D2306820F00F0038433060E1
:10196000306800F00F00B84253D128683C4C810722
:1019700012D5400703D5206840F4E0502060287855
:10198000000703D5206840F460402060A968206803
:1019900020F0F000084320602878C0072AD03049A2
:1019A00068680839012810D00968022810D0890712
:1019B00000292EDA216821F0030101432160FFF79D
:1019C00079FC804641F288390DE009688903EFE728
:1019D0008901EDE7FFF76EFCA0EB0801494502D94C
:1019E0000320BDE8F0876868216801F00C01B1EBC5
:1019F000800FEFD1306800F00F00B8420BD930688B
:101A000020F00F0038433060306800F00F00B8421B
:101A100001D00120E5E72878400705D5E96820686E
:101A200020F4E050084320602878000706D5286994
:101A3000216821F4604141EAC000206000F038F8DC
:101A40002168084AC1F30311515CC8400649086087
:101A500006480068FFF748FC0020C2E7003C02404F
:101A600008380240EF5D00084005002038050020DE
:101A70000449054809680068044AC1F38221515CA1
:101A8000C84070470838024040050020FF5D00084C
:101A90000449054809680068044AC1F34231515CB1
:101AA000C84070470838024040050020FF5D00082C
:101AB000154910B51548096811F00C0213D01449E6
:101AC000042A0FD0082A0ED10F4C241F2268236845
:101AD00002F03F025B0207D52068C0F38810A0FB2C
:101AE000010106E0084610BD2168C1F38811A1FB81
:101AF00000010023FEF786FB2168C1F30141491C68
:101B00004900B0FBF1F010BD083802400024F40099
:101B100040787D012DE9F84F04004FF000076ED0AA
:101B20002078DFF868A3AAF10408C007A8F104052B
:101B30004CD0DAF800105046C1F38101012908D0D9
:101B40000068C0F3810002280AD1D8F800004002E2
:101B500006D52868800339D560680028DFD035E0D5
:101B60006068B0F5803F0BD010B1B0F5A02F11D058
:101B7000286820F480302860286820F4802002E063
:101B8000286840F480302860606890B1FFF792FBCD
:101B900006460AE0286840F480202860F0E700BF8D
:101BA000FFF788FB801B642872D828688003F7D56C
:101BB0000CE0FFF77FFB064605E000BFFFF77AFB6E
:101BC000801B6428F0D828688003F7D42078800729
:101BD00042D5DAF80010504611F00C0F08D000681A
:101BE000C0F3810002280BD1D8F80000400207D4CE
:101BF0002868800718D5E068012800D114E041E189
:101C0000E0680028286817D040F001002860FFF73E
:101C100051FB064605E000BFFFF74CFB801B022886
:101C2000C2D828688007F7D52069296821F0F80113
:101C300041EAC00028600FE020F001002860FFF7B3
:101C400039FB064605E000BFFFF734FB801B022886
:101C50001ED828688007F7D42078000729D58B483C
:101C600061696C3000298146016812D041F00101A0
:101C70000160FFF71FFB064605E000BFFFF71AFBF8
:101C8000801B022804D8D9F800008007F6D510E0A0
:101C900089E021F001010160FFF70CFB064604E03A
:101CA000FFF708FB801B02287DD8D9F800008007C9
:101CB000F6D4207840076BD5DFF8D09109F13809C8
:101CC000D9F80000C0000BD4D9F8001041F08051C1
:101CD000C9F80010D9F80000012700F080500090EA
:101CE0006B480168C90512D40168834641F48071CC
:101CF0000160FFF7DFFA064605E000BFFFF7DAFAFA
:101D0000801B64284FD8DBF80000C005F6D55F4E75
:101D1000A068683601280AD008B1052811D03068BB
:101D200020F001003060306820F0040002E03068EC
:101D300040F001003060A068A0B1FFF7BBFA834615
:101D40000CE0306840F004003060F0E7FFF7B2FAD2
:101D5000A0EB0B0141F28830814266D830688007E1
:101D6000F4D50EE0FFF7A6FA834607E0FFF7A2FAE4
:101D7000A0EB0B0141F28830814256D830688007D1
:101D8000F4D42FB1D9F8001021F08051C9F8001017
:101D9000A069C8B3DAF80010C1F3810102294BD061
:101DA0000228286800E040E020F08070286003D01E
:101DB000FFF780FA04463BE0FFF77CFA064604E0B2
:101DC000FFF778FA801B02282FD828688001F7D403
:101DD000D4E90962D4E907012E4B570894F82C2066
:101DE000084303EB074343EA8611084340EA0260D5
:101DF00040F00050C8F80000286840F0807028606B
:101E0000FFF758FA044606E03EE000BFFFF752FA3B
:101E1000001B022809D828688001F7D534E000BFEC
:101E2000FFF748FA001B022802D90320BDE8F88F0B
:101E300028688001F4D427E00128D8F8000021D0D8
:101E4000E16900F480028A421CD1216A00F03F025D
:101E50008A4217D1626A47F6C0710140B1EB821F16
:101E600010D1A16A4FF0FF3200F4403302EB510170
:101E7000B3EB014F06D194F82C1000F07060B0EB7A
:101E8000016F01D00120D1E70020CFE708380240E0
:101E9000007000400000FFFF401EB0F1807F10B5D1
:101EA00001D3012010BD4FF0E02460610F216017C5
:101EB00001F0DCFD0020A0610721216110BD704709
:101EC00070477047F0B590F83C20012A3BD01F4E78
:101ED000012480F83C40022280F83D2002681C4D1D
:101EE0005368B242D2F808C001D0AA4203D14F6869
:101EF00023F470033B430F6823F070031F435760C4
:101F00000268B24213D0B2F1804F10D0114B9A4206
:101F10000DD0114B9A420AD0104B9A4207D0AA42D8
:101F200005D00F4B9A4202D00E4B9A4204D18968D9
:101F30002CF0800319439160002180F83D4080F827
:101F40003C100846F0BD0220F0BD0000000001403A
:101F5000000401400004004000080040000C004064
:101F6000004001400018004010B5040003D094F870
:101F70003D0010B107E0012010BD002084F83C00B6
:101F8000204600F023F8022084F83D002068211D3F
:101F900001F0DEF8012084F8480084F83E0084F85F
:101FA0003F0084F8400084F8410084F8420084F83F
:101FB000430084F8440084F8450084F8460084F81F
:101FC000470084F83D00002010BD000008B50168FE
:101FD0002648B1F1804F11D0254A91421DD10168A8
:101FE00041F00201016000680022114600F0020089
:101FF00000901D20FFF7BEF91D2031E0016841F07F
:102000000101016000680022114600F0010000900B
:102010001C20FFF7AFF91C2022E0164A91420ED196
:10202000016841F00401016000680022114600F0DF
:10203000040000901E20FFF79DF91E2010E00E4ABC
:10204000914211D1016841F008010160006800224D
:10205000114600F0080000903220FFF78BF9322083
:10206000BDE80840FFF778B908BD000040380240DD
:102070000004004000080040000C004090F83D10B3
:10208000012901D001207047174A022180F83D1034
:102090000168CB6843F00103CB600068904214D024
:1020A000B0F1804F11D0114988420ED010498842BA
:1020B0000BD01049884208D00F49884205D00F49FB
:1020C000884202D00E49884207D181680D4A1140EA
:1020D000062906D0B1F5803F03D0016841F0010127
:1020E0000160002070470000000001400004004033
:1020F00000080040000C0040000401400040014086
:10210000001800400700010070B5044690F83C003C
:102110000025012817D0334B012684F83C600220AB
:1021200084F83D0022689068184020F47F40906059
:102130000868502838D00DDC20284FD005DC90B33B
:10214000102811D14AE0022070BD302846D0402826
:102150000AD13BE060282FD070280DD0B0F5805F09
:1021600003D0B0F5005F12D0012584F83D60002057
:1021700084F83C00284670BD4A682068D1E9021303
:1021800001F04CF82068816841F0770109E04A6865
:102190002068D1E9021301F041F82068816841F418
:1021A00080418160E1E719E0CA684968206801F070
:1021B00046F82068502106E0CA684968206801F0A6
:1021C0004FF82068602101F032F8CEE7CA6849680C
:1021D000206801F034F820684021F4E722680146C5
:1021E0001046F0E788FFFEFF704770B504460068B0
:1021F00000250169C943890715D4C168C943890706
:1022000011D4EA1E026101212177206880698007CC
:10221000204602D0FFF7E8FF04E000F0A7F82046D0
:1022200000F0A5F8257720680169C943490717D44C
:10223000C168C943490713D402216FF00402026147
:1022400021772068806910F4407F204602D0FFF794
:10225000CBFF04E000F08AF8204600F088F82577EC
:1022600020680169C943090716D4C168C943090731
:1022700012D404216FF00802026121772068C0693E
:102280008007204602D0FFF7AFFF04E000F06EF8B1
:10229000204600F06CF8257720680169C943C9061B
:1022A00017D4C168C943C90613D408216FF01002BE
:1022B000026121772068C06910F4407F204602D077
:1022C000FFF792FF04E000F051F8204600F04FF8CD
:1022D000257720680169C943C90708D1C168C94386
:1022E000C90704D1891E0161204600F041F8206829
:1022F0000169C943090609D4C168C943090605D45F
:102300006FF0800101612046FFF7DAFD2068016966
:10231000C943C90509D4C168C943090605D46FF486
:10232000807101612046FFF7CAFD20680169C94339
:10233000490609D4C168C943490605D46FF0400174
:102340000161204600F060F820680169C9438906F0
:102350000BD4C168C943890607D46FF0200101611D
:102360002046BDE87040FFF7ACBD70BD70477047B8
:1023700070B500688AB0B0F1804F3FD1204D022186
:102380002846FEF789FF1F4CE078002836D001214F
:102390002846FEF781FF2179481C2071606902F010
:1023A000F3FE0021054602F0EFFE01210646284615
:1023B00002F0EAFE242105466846FDF761FF95ED2F
:1023C000061B96ED060B6846FEF78EFBE08804F1CF
:1023D000280569462844FDF7A1FF284603F0F0FCD4
:1023E000E1886818C1F58071FDF74AFF2079E1782E
:1023F000884203D3FEF7F4FA0120A0700AB070BD42
:10240000000402400C0000207047704770B501685E
:102410000446C06F1025D4F880608968090618D575
:10242000212816D12068083050E8001F21F08001D3
:1024300040E80012002AF5D1206F38B1FEF718FCF1
:1024400020B1206FFEF76FFC202821D0204601F03C
:1024500046F820688068400618D5222E16D12068DC
:10246000083050E8001F21F0400140E80012002A27
:10247000F5D1606F38B1FEF7FBFB20B1606FFEF75E
:1024800052FC202804D0204601F003F8002070BD43
:10249000C4F88450032070BD704700002DE9F0415E
:1024A00002680025044640F60F070226D06911682D
:1024B0009368384205D183067ED58B067CD5A16E04
:1024C0001CE1DFF868C203F0010701EA0C0C57EACF
:1024D0000C0C71D05FEAC07C0CD05FEAC15C09D5FE
:1024E0004FF0010CC2F820C0D4F8842042F0010261
:1024F000C4F88420820709D5DA0707D0226816625B
:10250000D4F8842042F00402C4F8842042070AD59B
:10251000DA0708D0236804221A62D4F8842042F033
:102520000202C4F8842002070CD501F020023A43CD
:1025300008D0236808221A62D4F8842042F00802E6
:10254000C4F8842002050BD54A0109D523684FF44D
:1025500000621A62D4F8842042F02002C4F8842079
:10256000D4F88420002A36D0800605D5880603D505
:10257000A16E09B1204688472168D4F88400896893
:10258000490602D410F0280F27D0204600F081FF22
:102590002068806840061BD52068083050E8001F7E
:1025A00021F0400140E80012002AF5D1606F78B1B7
:1025B0005F490165606F00E015E0FEF7A2FB0028AF
:1025C00009D0606F016D00E02046BDE8F04108478A
:1025D0002046FFF761FFBDE8F0812046FFF75CFF72
:1025E000C4F88450F7E7276E2023012F7DD1C7065A
:1025F0007FD5CF067DD51020106220688068400608
:1026000043D5616F086840680004000CE3D0B4F85B
:1026100058208242DFD9A4F85A00C869B0F5807FFB
:102620002BD0216851E8000F20F4807041E80002AF
:10263000002AF6D12068083050E8001F21F001017F
:1026400040E80012002AF5D12068083050E8001F49
:1026500021F0400140E80012002AF5D1C4F8803092
:102660002566216851E8000F20F0100041E80002C3
:10267000002AF6D1606FFEF7FBFA6666B4F85800E0
:10268000B4F85A10401A81B22DE0B4F85800B4F8EA
:102690005A10B4F85A20401A81B2002A9BD000295F
:1026A00099D0226852E8000F20F4907042E80007A9
:1026B000002FF6D1206800F1080050E8002F22F02A
:1026C000010240E80027002FF4D1C4F880302566CD
:1026D000A566226852E8000F20F0100042E80003CF
:1026E000002BF6D16666204600E002E0FFF78DFE83
:1026F00071E7020606D50A0604D5E16E00297FF4CB
:1027000063AF68E74006F3D54806F1D52046026876
:1027100052E8001F21F0400142E80014002CF6D1DD
:10272000C367C56600F00BFA55E7000020010004FE
:102730009133000810B5040002D0E06F10B107E03B
:10274000012010BD002084F87800204600F026F813
:102750002420E0672068016821F001010160204623
:1027600000F0CAFE0128ECD0606A10B1204600F0EB
:1027700089FD2068416821F49041416020688168AA
:1027800021F02A0181602068016841F001010160A7
:102790002046BDE8104000F0D9BD00002DE9F04F03
:1027A000A7B00546142121A8FDF76AFD84216846DB
:1027B000FDF766FD9E49032428680026DFF86C8239
:1027C0004FF4806A88424FF002094FF480774FF04F
:1027D000070B46D14021684611960091FEF732FE64
:1027E00008B1FEF77EF991481430016841F01001FC
:1027F0000160006800F010002690D8F8000040F05A
:102800000100C8F80000D8F800004FF4C06221A908
:1028100000F00100CDE925B0CDE921298548CDE9B9
:102820002364FEF715FC844C4FF00060834A22605D
:10283000C212C4E90106C4E9036A66612046C4E91C
:102840000667C4E90826FEF741FB08B1FEF749F91F
:102850006C6700220121A5632520FEF78BFD252052
:1028600048E0774988424AD1802168461296009113
:10287000FEF7E8FD08B1FEF734F96C481030016846
:1028800041F400310160006800F400302690D8F86F
:10289000000040F00100C8F80000D8F800000C2249
:1028A00021A900F00100CDE925B0CDE92129614839
:1028B000CDE92364FEF7CCFB5F4C4FF00060614A2A
:1028C00060342260C212C4E90106C4E9036A666189
:1028D0002046C4E90667C4E90826FEF7F7FA08B1FE
:1028E000FEF7FFF86C6700220221A5632620FEF7A1
:1028F00041FD2620FEF730FD27B0BDE8F08F52499C
:10290000884247D1684600971396FEF79BFD08B1B1
:10291000FEF7E7F845481030016841F48021016076
:10292000006800F480202690D8F8000040F00200F3
:10293000C8F80000D8F800004FF4406221A900F068
:102940000200CDE925B0CDE921294048CDE9236435
:10295000FEF77EFB384C4FF000603A4BC034603BD2
:1029600023608312C4E90106C4E9036A6661204654
:10297000C4E90667C4E90836FEF7A8FA08B1FEF70D
:10298000B0F86C6700220321A5632720FEF7F2FC54
:102990002720AFE72E498842AED1C114684616966B
:1029A0000091FEF74FFD08B1FEF79BF81F48143069
:1029B000016841F020010160006800F020002690CD
:1029C000D8F8000040F00400C8F80000D8F8000073
:1029D000C021082200F00400CDE9211921A9CDE988
:1029E00025201C48CDE92364FEF732FB1A4C13491D
:1029F0002046183921608A05C4E90126C4E9036A22
:102A000066614FF48031C4E90667C4E90816FEF731
:102A10005DFA08B1FEF765F86C6700220421A56332
:102A20004720FEF7A7FC472064E70000303802404B
:102A30000010014000000240A41A0020406402403F
:102A4000004400408860024000480040000402400A
:102A50000014014000080240C41B002030B4D0F82C
:102A60008030202B02D0022030BC704791B18AB157
:102A70000023036603685B681B0208D5046854E8FA
:102A8000003F43F0806344E80035002DF6D130BCB0
:102A900000F04ABE0120E7E7704770472DE9F84390
:102AA0000446C06F1F4616460D46202802D002205D
:102AB000BDE8F8838DB186B10020C4F884002121DF
:102AC000E167FEF7F7FB8046A068A4F85060A4F821
:102AD0005260B0F5805F02D003E00120E8E7206992
:102AE00010B12E46002510E000260EE08021204681
:102AF00000F06AFEB8B9C6B116F8010B2168886209
:102B0000B4F85200401EA4F85200B4F852004346F4
:102B10004FF0000200970028E8D14FF04001204616
:102B200000F052FE38B10320C2E735F8020B2168ED
:102B3000C0F30800E3E72020E0670020B8E7704713
:102B4000FEE70000194808B5016841F48001016002
:102B5000016801F480010091016841F400110160F5
:102B600000680022114600F4001000900C20FEF7CF
:102B700001FC0C20FEF7F0FB002210201146FEF7AE
:102B8000F9FB1020FEF7E8FB002239201146FEF782
:102B9000F1FB3920FEF7E0FB00223A201146FEF758
:102BA000E9FBBDE808403A20FEF7D6BB30380240CA
:102BB00070B586B014216846FDF762FB20480168B5
:102BC00041F001010160016801F001010591016816
:102BD00041F004010160016801F004010591016800
:102BE00041F080010160016801F0800105910168F8
:102BF00041F00201016000680122124E032100F041
:102C0000020005903046FEF74FFB0125694600247F
:102C100068038DE831000C48FEF71AFA0C2069466B
:102C20008DE831000948FEF713FA03200090CDE942
:102C30000154694630460394FEF70AFA06B070BDA7
:102C4000303802400004024000080240001C0240EC
:102C500010B588B01748002440F237424FF0804149
:102C60004CF24F330094019402940394049405941D
:102C7000069480E81600C0E903348461FFF774F914
:102C800008B1FDF72EFF4FF48050009009486946C7
:102C9000FFF73AFA08B1FDF724FF064804A90494A7
:102CA0000694FFF70FF9002801D0FDF71AFF08B0CE
:102CB00010BD00005417002010B588B0174800243C
:102CC000154940F237424CF250330094019402947B
:102CD000039404940594069480E81600C0E9033434
:102CE0008461FFF741F908B1FDF7FBFE4FF4805016
:102CF00000900A486946FFF707FA08B1FDF7F1FEB0
:102D0000064804A904940694FFF7DCF8002801D0D3
:102D1000FDF7E7FE08B010BD00040040A01700203A
:102D200010B588B017480024154940F237424CF2DC
:102D30004F330094019402940394049405940694F0
:102D400080E81600C0E903348461FFF70DF908B18B
:102D5000FDF7C7FE4FF4805000900A486946FFF720
:102D6000D3F908B1FDF7BDFE064804A90494069402
:102D7000FFF7A8F8002801D0FDF7B3FE08B010BD9A
:102D800000080040EC17002010B588B01748002458
:102D9000154940F237424CF24F33009401940294AB
:102DA000039404940594069480E81600C0E9033463
:102DB0008461FFF7D9F808B1FDF793FE4FF4805016
:102DC00000900A486946FFF79FF908B1FDF789FEB0
:102DD000064804A904940694FFF774F8002801D06B
:102DE000FDF77FFE08B010BD000C00403818002031
:102DF0000D48002110B50B4C0C224FF4E133046058
:102E0000C0E90131C160C0E904128161C1610162A0
:102E10004162FFF78FFC002803D0BDE81040FDF7AA
:102E200060BE10BD00100140841800200D48002134
:102E300010B50B4C0C224FF4E1330460C0E90131B2
:102E4000C160C0E904128161C16101624162FFF7A2
:102E500071FC002803D0BDE81040FDF742BE10BD54
:102E6000004400400C1900200D48002110B50B4C07
:102E70000C224FF4E1330460C0E90131C160C0E9C4
:102E800004128161C16101624162FFF753FC0028B5
:102E900003D0BDE81040FDF724BE10BD004800403F
:102EA000941900200D48002110B50B4C0C224FF452
:102EB000E1330460C0E90131C160C0E904128161FD
:102EC000C16101624162FFF735FC002803D0BDE813
:102ED0001040FDF706BE10BD001401401C1A002072
:102EE000FEE7FEE77047000070B515A105461748DC
:102EF000FDF7DDF922210446FDF7EBF9001B214621
:102F000082B21348FDF7F6F9012D16D011A1104831
:102F1000FDF7C1F90E4802F053FF16A000F06AFD5C
:102F200016480B4A0089C0F580711044FDF7A8F9D6
:102F3000BDE8704012A000F05DBD13A1E7E70000FE
:102F4000726571756573745F69643D00540B002090
:102F500034030020222C31372C227B5C22726573D3
:102F6000756C745F636F64655C223A317D220D0A73
:102F7000000000006F6B6B0D0A0000000C000020C9
:102F80006F6B6B320D0A0000222C31372C227B5CD8
:102F900022726573756C745F636F64655C223A308E
:102FA0007D220D0A0000000070B515A105461748E6
:102FB000FDF77DF922210446FDF78BF9001B214620
:102FC00082B21348FDF796F9012D16D011A11048D1
:102FD000FDF761F90E4802F0F3FE16A000F00AFDBD
:102FE00016480B4A4089C0F580711044FDF748F936
:102FF000BDE8704012A000F0FDBC13A1E7E700009F
:10300000726571756573745F69643D00540B0020CF
:1030100034040020222C31372C227B5C2272657311
:10302000756C745F636F64655C223A317D220D0AB2
:10303000000000006F6B6B0D0A0000000C00002008
:103040006F6B6B320D0A0000222C31372C227B5C17
:1030500022726573756C745F636F64655C223A30CD
:103060007D220D0A000000007047FEF729B900001C
:1030700030B593B030216846FDF702F914210CA851
:10308000FDF7FEF82048016841F0805101600068BA
:1030900000F0805011901D48016841F440410160EA
:1030A000006802241923089300F440401190012085
:1030B0004FF4D87582050104CDE90642CDE90954E3
:1030C0000B94CDE900016846FEF724FD08B172B605
:1030D000FEE7FEF781F908B172B6FEE70EAD0021FA
:1030E0004FF4A0524FF4805385E80E000F20CDE935
:1030F0000C0407210CA8FEF723FC002801D072B6AF
:10310000FEE713B030BD00004038024000700040C0
:103110000248016841F470010160704788ED00E0E9
:103120000148FFF762B80000541700200148FFF77C
:103130005CB80000A01700200148FFF756B8000057
:10314000EC1700200148FFF750B8000038180020A5
:10315000F0B5274B4FF0804E264D02689842264E20
:10316000264F274C09D0704507D0A84205D0B04261
:1031700003D0B84201D0A04205D1D1F804C022F05A
:1031800070024CEA020298421BD0704519D0A84246
:1031900017D0B04215D0B84213D0A04211D0194D6B
:1031A000A8420ED0184DA8420BD0184DA84208D006
:1031B000174DA84205D0174DA84202D0164DA8427F
:1031C00003D1CD6822F440722A434D6922F0800277
:1031D0002A43026098428A68C2620A68826201D009
:1031E000A04201D10969016301214161F0BD0000E4
:1031F000000001400004004000080040000C0040B6
:1032000000040140004001400044014000480140EA
:1032100000180040001C00400020004042EA032249
:1032200083680A4323F47F410A43826070478268BF
:1032300022F070020A4342F007018160704710B526
:10324000036A046A23F00A0324F001040462846917
:103250000B4324F0F00141EA02118161036210BDC9
:1032600010B5036A23F0100303628369046A23F430
:10327000704324F0A00443EA0232826144EA01115F
:10328000016210BD90F82410C90706D00168836A56
:103290004A6822F400321A434A6090F824108907E1
:1032A00006D50168C36A4A6822F480321A434A602C
:1032B00090F82410490706D50168036B4A6822F488
:1032C00080221A434A6090F82410090706D5016845
:1032D000436B4A6822F400421A434A6090F8241073
:1032E000C90606D50168836B8A6822F480521A43A6
:1032F0008A6090F82410890606D50168C36B8A6835
:1033000022F400521A438A6090F82410490611D51D
:103310000168036C4A6822F480121A434A60016C07
:10332000B1F5801F06D10168436C4A6822F4C002DF
:103330001A434A6090F82410090606D50168826C89
:10334000486820F4002010434860704738B50025D5
:103350000446C0F88450FDF7ADFF034620680068BE
:1033600000070BD56FF07E400090002220464FF4FE
:10337000001100F029FA08B1032038BD2020E067D1
:10338000C4F8800025666566002084F8785038BD52
:1033900010B5806B0021A0F85A10A0F85210FFF76A
:1033A0007BF810BD70B5846B00252168E06FD4F800
:1033B00080608968090606D5212804D1A4F85250F6
:1033C000204600F08CF820688068400606D5222E42
:1033D00004D1A4F85A50204600F05BF8D4F88400D9
:1033E00040F01000C4F884002046FFF755F870BD87
:1033F00010B5C1690022806BB1F5807F2DD0A0F897
:103400005A20036853E8001F21F4807143E8001438
:10341000002CF6D10168083151E8003F23F0010388
:1034200041E80034002CF5D10168083151E8003F33
:1034300023F0400341E80034002CF5D12021C0F8EE
:103440008010016E012908D1016851E8003F23F086
:10345000100341E80034002CF6D14266016E0129C8
:1034600002D0FFF719FB10BDB0F85810FEF7CDFFE2
:1034700010BD10B5806B01214166016E012902D09B
:10348000FFF70BFB10BDB0F858104908FEF7BDFF61
:1034900010BD016851E8002F22F4907241E800232A
:1034A000002BF6D10168083151E8002F22F001020B
:1034B00041E80023002BF5D1016E012908D10268F3
:1034C00052E8001F21F0100142E80013002BF6D152
:1034D00000212022C0F880200166816670470268C2
:1034E00052E8001F21F0C00142E80013002BF6D182
:1034F0002021C167704700002DE9F04104460368B0
:10350000C2698168D4E90450DFF8F0C17C4E2943D8
:103510001F68002510437B4A014307EA0C070F434D
:103520001F604FF400402168E7684B6823F4405364
:103530003B434B602768A369216AD7F808C0194349
:103540002CF430630B43BB602168B1420AD111688F
:1035500011F0030152D001297CD0022971D0032936
:103560006ED184E0684B99420AD1116811F00C01C8
:1035700067D0042965D0082975D00C2960D176E080
:10358000624B99420AD1116811F0300159D01029CB
:103590006BD0202967D0302952D168E05C4B99422A
:1035A0000AD1116811F0C0014BD040295DD08029AB
:1035B00059D0C02944D15AE0564B99420DD11168D7
:1035C00011F440713DD0B1F5807F4ED0B1F5007F50
:1035D00049D0B1F5407F33D149E04F4B99420FD1EB
:1035E000116811F4406109D0B1F5806F3DD0B1F59B
:1035F000006F38D0B1F5406F22D138E0012120E0D2
:10360000464B99420DD1116811F4405119D0B1F5D2
:10361000805F2AD0B1F5005F25D0B1F5405F0FD1B2
:1036200025E03F4B99420BD1116811F4404108D07D
:10363000B1F5804F19D0814215D0B1F5404F16D069
:103640001021E369374A4FF6EF7683422ED10929DC
:1036500049D201E009E006E0DFE801F00B0E114578
:103660001345454516000221EBE70421E9E708214F
:10367000E7E7FEF7FDF906E0FEF70AFA03E0104679
:1036800002E0FEF715FA78B36168400000EB5100E4
:10369000B0FBF1F0A0F11001B14224D84FF6F07365
:1036A0002168C0F342021840104320E009291AD2D1
:1036B000DFE801F005080B190D1919191000FEF7C4
:1036C000D7F906E0FEF7E4F903E0104602E0FEF762
:1036D000EFF948B1616800EB5100B0FBF1F0A0F1E7
:1036E0001001B14201D9012502E0216880B2C86011
:1036F0000020A066E0662846BDE8F081F369FFEF90
:103700000010014090380240004400400048004052
:10371000004C004000500040001401400078004080
:10372000007C00400024F40070B50446406F002384
:1037300022256165A4F85820C4F88430C4F880506C
:10374000D0B11E49C163616F1D480864616F1D4897
:10375000C864606F03651346656D2168606F2A4613
:103760002431FDF725FC38B11021C4F88410202045
:10377000C4F88000012070BD206940B1216851E883
:10378000000F40F4807041E80002002AF6D1206862
:10379000083050E8001F41F0010140E80012002A03
:1037A000F5D12068083050E8001F41F0400140E8A2
:1037B0000012002AF5D1002070BD0000F13300088E
:1037C00073340008A53300082DE9F0479A461746E0
:1037D0000E460446089D4FF000094FF020084CE0CB
:1037E000681C4AD0FDF766FDA0EB0A00A8422AD863
:1037F0004DB32068016849073FD5C069C043000543
:103800003BD421684FF400600862216851E8000F42
:1038100020F4D07041E80002002AF6D12068083078
:1038200050E8001F21F0010140E80012002AF5D104
:10383000C4F87C8084F87890C4F88080C4F88480D0
:103840000320BDE8F087206850E8001F21F4D07104
:1038500040E80012002AF6D12068083050E8001F26
:1038600021F0010140E80012002AF5D1C4F87C8063
:1038700084F87890C4F88080E2E72068C06936EA6E
:10388000000004D00020B842AAD00020D9E70120CF
:10389000F9E70000044810B5FEF700FEBDE810404F
:1038A000014800F057B8000084180020044810B503
:1038B000FEF7F4FDBDE81040014800F04BB80000F1
:1038C0000C190020044810B5FEF7E8FDBDE81040D3
:1038D000014800F03FB8000094190020044810B5DA
:1038E000FEF7DCFDBDE81040014800F033B80000F1
:1038F0001C1A002010B50068114988421FD11148D8
:10390000FEF784FD1048114C00684068C0F5C060A7
:10391000A081E18908440E49E08101F5C060FCF70F
:10392000BAFC01206070A1890948FCF7A9FCBDE838
:10393000104007494FF4C0620248FFF78FB810BD2E
:10394000004400400C190020041B00200C00002043
:103950005405002070B51E490446006810258842B1
:1039600009D11C480068C169C943C90603D405626E
:103970001848FFF7BFFF18492068884209D1174847
:103980000068C169C943C90603D405621348FFF73B
:10399000B1FF13492068884209D112480068C16903
:1039A000C943C90603D405620E48FFF7A3FF0E49B9
:1039B000206888420BD10D480068C169C943C90617
:1039C00005D40562BDE870400848FFF793BF70BD9D
:1039D0000010014084180020004400400C19002011
:1039E0000048004094190020001401401C1A0020D7
:1039F000FEE700000FB4054B10B503A9044A029876
:103A000001F016F810BC5DF814FB0000A952000884
:103A1000440500200FB4084B10B504A902AA03986E
:103A200001F006F8044602A9002001F084FB2046BC
:103A300010BC5DF814FB00003751000803B4019876
:103A40004100009850EAC12018BF04204A0D18BF59
:103A500040F0010040F2FF72B2EB515F08BF40F04E
:103A60000200012808BF052002B07047090700289E
:103A70004FEA116104DB00F1E02080F80014704788
:103A800000F00F0000F1E02080F8141D70470000E6
:103A90002DE9F04D2DED040B2DED0E8B96B0DDE9EB
:103AA0002550279CDDF890A025F0004624F0004822
:103AB000BAF1000F14BF0121002101EB4502FC49BE
:103AC00053184A1093422AD3002814BF012300231D
:103AD00003EB44030B44F7498B4220D358EA00011F
:103AE0009FEDF59B76D0DFF8D8B35D4503D1BAF1F1
:103AF000000F05D188E0BAF1000F08BF002100D007
:103B0000012101EB450111F5001F08D8002814BF61
:103B10000121002101EB440111F5001F0BD99DED9E
:103B2000261B9DED240B16B0BDEC0E8B04B0BDE83A
:103B3000F04D00F069BE0027002DBCBFE14988456B
:103B400021DAE1498845A8BF02271CDAC3451ADCFF
:103B5000DE4901EB2851142908DDC1F1340220FAB5
:103B600002F101FA02F282420DD108E058B9C1F126
:103B7000140228FA02F101FA02F2424503D101F0DF
:103B80000101C1F1020756EA0A0124D1002C22DA10
:103B9000002D18BF022F01D0012F0AD0022000F003
:103BA0007FFE16B0BDEC0E8B04B0BDE8F04D00F00A
:103BB00013BE022000F074FE00F00EFE51EC100B5C
:103BC00081F0004141EC100B16B0BDEC0E8B04B03F
:103BD000BDE8F08D18E09FEDBEAB9FEDBF8B0028D8
:103BE00071D1B848804522D105F1804010F5801090
:103BF00008BFBAF1000F07D0B3450ADC002CA8BFFC
:103C00009DED260BE0DA0DE0B0EE490AF0EE690A10
:103C1000DAE7002C06DA9DED260B51EC100B81F053
:103C200000416FE0AE48784490ED000BCCE7D845FA
:103C30004DD1002C48DA2EB186423AD1BAF1000FAC
:103C400042D126E0BAF1000F13D0022000F028FE86
:103C500000F0F6FD8DED020B9DED240B8DED000BBC
:103C600010EE900A039961F31E0003909DED020B84
:103C7000AAE78DED02AB9DED240B1AEE901A10EE23
:103C8000900A8DED000B61F31E0003909DED020B79
:103C90009AE78DED028B9DED240B18EE901A10EE35
:103CA000900A8DED000B61F31E0003909DED020B59
:103CB0008AE709DA9DED240B51EC190B53EC102B1C
:103CC000FCF74AFD1EE020E09DED240B7CE78642D8
:103CD0001BDAB4F1804F0DD0A4F10050B0F1FF50C9
:103CE00013D1002D11DB9DED240B51EC100B02F0D4
:103CF0002FF807E09DED240B53EC102B51EC100B2B
:103D000000F0C2BC41EC100B5EE79DED240B51ECC2
:103D1000100B01F0BCFABAF1000FCDE90E0142D14F
:103D20009FED710B46B3A6F1E040B0F17F600CD07F
:103D30005E4538D1002D00DAA7B3022F0CBF012059
:103D40004FF0FF30FCF71BFCDCE7002D01DD002C01
:103D50000DDA002D01DD002C1FDB002D16DA002C02
:103D600014DB012F08BF9FED620B3FF42DAFB0EEC7
:103D70004A0AF0EE6A0A27E7022F18BF002D0CD07E
:103D8000012F0AD1002DFFF61FAF06E0002DB8BFAE
:103D9000002C08DA012F3FF417AFB0EE480AF0EE1E
:103DA000680A11E71BE0012000EBE57050EA07010B
:103DB00015D0791EB0EE498AF0EE698A084308BF33
:103DC0009FED4D8B4E480025804570DD4D494E4896
:103DD000884514DDB0420DDB002C19DB2FE00120FB
:103DE00000F05EFD16B0BDEC0E8B04B0BDE8F04DEA
:103DF00000F016BDB34502DC002C09DC1FE0864252
:103E000002DA002C1BDA03E05E452BDD002C16DD08
:103E1000022000F045FD00F013FD8DED020B53EC88
:103E20001A2B51EC180BFCF738FBCDE90001039974
:103E3000019861F31E0003909DED020BC4E6022081
:103E400000F02EFD00F00CFD10EE901A18EE900A16
:103E50008DED020B8DED008B61F31E0003909DED47
:103E6000020BB1E69DED0E0B53EC192B51EC100B30
:103E7000FCF70DFB9FED260BCDE9080153EC102B51
:103E80009DED080B51EC100BFCF707FB9FED221B7F
:103E900053EC112BFCF7FEFA9DED081B53EC112B94
:103EA000FCF7FBFA9FED1E1B53EC112B3CE08CE062
:103EB000FFFF1F00FFFF0F00000000000000F03FA9
:103EC0000000F03F0000F07F0000404301FCFFFFD6
:103ED000000000000000F07F000000000000000073
:103EE00066220000000000000000000000000080CA
:103EF000000000000000F0FF000000000000F0BF24
:103F00000000E0410000F043FFFFEF3F0000000031
:103F1000000000000000D03F555555555555D53F80
:103F2000000000000000E03FFCF7B4FA9DED080B34
:103F300041EC1A0B53EC102B51EC100BFCF7ADFAC3
:103F400053EC1A2BFCF7A9FA41EC1A0B9FEDFE0B70
:103F500053EC102B9DED080B51EC100BFCF79DFA68
:103F600041EC1B0B9FEDFA0B51EC1A0B53EC102B91
:103F7000FCF793FA41EC1A0B9FEDF70B53EC102B67
:103F80009DED080B51EC100BFCF787FA53EC1A2B44
:103F9000FCF77DFA41EC1A0B51EC1B0B53EC1A2B7E
:103FA000FCF7D4F90690CDE906519DED060B53ECD4
:103FB0001B2B51EC100BFCF76AFA53EC1A2BFCF795
:103FC00069FA41EC100B00F0A1B90020B6F5801F92
:103FD0000EDA9FEDE30B53EC102B9DED0E0B51EC25
:103FE000100BFCF75AFACDE90E016FF034000E46C3
:103FF00000EB2650A0F2FF37C6F31300DA4940F079
:104000007F6646F040568842D8BF002408DDD74975
:104010008142C8BF012403DC0024A6F580167F1C62
:10402000D348784400EBC4000F9690ED00CB9DED93
:104030000E0B53EC1C2B51EC100BFCF728FA9DEDEA
:104040000E0B41EC1B0B53EC1C2B51EC100BFCF733
:104050007DF941EC100B51EC190B53EC102BFCF7D4
:104060007BFB41EC1D0B51EC1B0B53EC1D2BFCF7A8
:1040700014FA41EC1A0BBF488DED10AB7844109543
:1040800090ED000B4FF0005040EA660000EB8440DA
:104090008DED080B00F5002009909DED080B53EC09
:1040A0001C2B51EC100BFCF7F2F99DED0E1B53ECA1
:1040B000112BFCF7EFF941EC100B53EC102B9DED9D
:1040C000100B51EC100BFCF7E8F99DED080B41ECDF
:1040D0001C0B53EC102B9DED100B51EC100BFCF74F
:1040E000DCF953EC1B2BFCF7D5F953EC1C2BFCF73C
:1040F000CEF953EC1D2BFCF7D0F941EC1C0B53EC23
:104100001A2B51EC1A0BFCF7C8F941EC1B0B9A481F
:104110000621B0EE4B0AF0EE6B0A784400F0E0FAAC
:10412000B0EE401AF0EE601AB0EE41DAF0EE61DA6D
:1041300053EC1B2B51EC1B0BFCF7AFF953EC1D2B75
:10414000FCF7ABF99DED100B41EC1B0B53EC1A2B5C
:1041500051EC100BFCF7FAF853EC1C2BFCF79DF913
:1041600053EC1B2BFCF7F2F89DED100B41EC1B0BF5
:1041700053EC102B51EC100BFCF78FF941EC1D0B9D
:104180009FED7FEB53EC1E2BFCF7E0F853EC1B2B61
:10419000FCF7DCF80890CDE908519DED080B53ECD5
:1041A0001E2B51EC100BFCF772F953EC1D2BFCF796
:1041B0006EF953EC1B2BFCF76DF99DED080B41ECF0
:1041C0001D0B53EC102B9DED100B51EC100BFCF75D
:1041D00064F941EC1B0B53EC1A2B51EC1D0BFCF753
:1041E0005CF99DED080B41EC1A0B53EC102B51ECD4
:1041F0001C0BFCF752F953EC1A2BFCF7A7F841EC17
:104200001A0B51EC1B0B53EC1A2BFCF79FF80C907C
:10421000CDE90C519DED0C0B53EC1B2B51EC100B0D
:10422000FCF735F953EC1A2BFCF734F941EC1B0B76
:104230009FED550B53EC102B9DED0C0B51EC100B1F
:10424000FCF72BF941EC1A0B9FED510B51EC1B0BBA
:1042500053EC102BFCF721F941EC1B0B9FED4E0B9F
:1042600053EC102B9DED0C0B51EC100BFCF715F9DA
:1042700053EC1B2BFCF76AF841EC100B48487844D0
:1042800000EBC40090ED001B51EC100B53EC112B14
:10429000FCF75CF841EC1B0B3846FCF770F9CDE9F4
:1042A000080153EC1B2B51EC1A0BFCF74FF841ECB7
:1042B000100B3C48784400EBC40090ED00CB51EC6F
:1042C000100B53EC1C2BFCF741F89DED081B53EC35
:1042D000112BFCF73BF80690CDE906519DED080B3C
:1042E00053EC102B9DED060B51EC100BFCF7CFF8A7
:1042F00053EC1C2BFCF7CBF853EC1A2BFCF7C7F84C
:1043000053EC1B2BFCF7C6F841EC100B9DED261B64
:1043100053EC102B8DED001B00959DED260B51EC01
:10432000100BFCF7BAF89DED000B41EC1A0B53ECA7
:10433000102B9DED260B51EC100BFCF7A8F89DED12
:10434000061B53EC112B2FE0000000604715F73FD0
:10435000FE822B654715F73F44DF5DF80BAE543EF8
:1043600000000000000040438E9803007AB60B0066
:10437000E21D0000101E00001A1D000000000000D9
:104380000000000000000840000000E009C7EE3F08
:10439000FD033ADC09C7EE3FF5015B14E02F3EBE9A
:1043A000A61B0000601B0000FCF777F853EC1A2BEB
:1043B000FBF7CCFF9DED060B41EC1A0B53EC102BD9
:1043C0009DED000B51EC100BFCF767F8CDE90C01EB
:1043D0009DED0C0B51EC1A0B53EC102BFBF7B6FFB9
:1043E000CDE902010C46AA498C422FDB611A084331
:1043F00018D19DED0C0B53EC102B9DED020B51ECE5
:10440000100BFCF744F841EC1B0B9FEDA30B51EC98
:104410001A0B53EC102BFBF799FF53EC1B2BFCF7FB
:10442000DFF82DD2022000F03BFA00F009FA10EE7E
:10443000901A18EE900A8DED020B8DED008B61F352
:104440001E0003909DED020BFFF7BEBB944A24F0C3
:104450000041914214D39349214408437FF4EFACC7
:104460009DED0C0B53EC102B9DED020B51EC100B42
:10447000FCF70DF853EC1A2BFCF7B2F87FF6DFAC23
:1044800024F000408849894A002601EB20518242ED
:104490002BDA481C4FF4801121FA00F02044844AA2
:1044A000C0F30A517A44A1F2FF3192ED000B814A28
:1044B0008DED080BCA4020EA0202C0F3130040F45D
:1044C0008010C1F1140120FA01F60992002CB8BF46
:1044D00076429DED080B53EC102B9DED0C0B51EC2F
:1044E000100BFBF7D4FFCDE90C019DED0C0B51EC4B
:1044F0001A0B53EC102BFBF729FF9FED6F0B089065
:10450000CDE9085153EC102B9DED080B51EC100B2D
:10451000FBF7C3FF41EC1B0B9FED690B53EC102B1A
:104520009DED080B51EC100BFBF7B7FF9DED0C0B4D
:1045300041EC1C0B53EC102B9DED080B51EC100BB8
:10454000FBF7A5FF53EC1A2BFBF7A4FF9FED5E1BB7
:1045500053EC112BFBF7A1FF53EC1C2BFBF7F6FEE2
:1045600041EC1A0B51EC1B0B53EC1A2BFBF7EEFE34
:10457000CDE902019DED020B53EC1B2B51EC100B0E
:10458000FBF785FF53EC1A2BFBF784FF9DED020B25
:1045900041EC1A0B53EC102B51EC100BFBF77DFF89
:1045A000CDE908014A489DED080B0521784400F04B
:1045B00097F89DED081B51EC100B53EC112BFBF7FA
:1045C0006CFF9DED021B53EC112BFBF763FFCDE954
:1045D00006019DED020B53EC1A2B51EC100BFBF76F
:1045E0005CFF53EC1A2BFBF7B1FE9FED3B0B41EC4C
:1045F0001A0B53EC102B9DED060B51EC100BFBF737
:1046000046FF9DED060B41EC1B0B53EC102B9DED73
:10461000020B51EC100BFBF740FF53EC1B2BFCF78C
:104620009BF853EC1A2BFBF732FF9DED021B53EC6A
:10463000112BFBF72CFF53EC192BFBF72BFFCDE9CC
:10464000020101EB065001150029C8BF039015DCDB
:104650009DED020B324651EC100BFCF7ECF8FFF726
:10466000EDF9042808BF00F0FBF832469DED020B7F
:1046700051EC100BFCF7DFF8CDE902019DED020BC8
:1046800051EC180B53EC102BFBF707FFFFF73ABB6D
:104690000000904000000000FE822B654715973C0B
:1046A00000CC904000346F3F01FCFFFF0000E03F72
:1046B000E8190000FFFF0F0000000000432EE63F56
:1046C000396CA80C615C20BEEF39FAFE422EE63F41
:1046D000B8180000000000000000000000000040CA
:1046E00070B504462DED028B4D1E00EBC500B0EEFB
:1046F000408AF0EE608A90ED000B35F0060017D08E
:1047000053EC182B51EC100BFBF7C7FE41EC100BD0
:104710006D1E04EBC50090ED001B51EC100B53EC2B
:10472000112BFBF713FE41EC100B35F00600E7D11F
:10473000022D36D0042D1CD0062D1CBFBDEC028BE3
:1047400070BD53EC182B51EC100BFBF7A6FE94ED4B
:104750000A1B53EC112BFBF7F9FD53EC182BFBF75D
:104760009CFE94ED081B53EC112BFBF7EFFD41EC85
:10477000100B53EC182B51EC100BFBF78EFE94ED45
:10478000061B53EC112BFBF7E1FD53EC182BFBF749
:1047900084FE94ED040B53EC102BFBF7D7FD41EC9A
:1047A000100B53EC182B51EC100BFBF776FE94ED2D
:1047B000021B53EC112BFBF7C9FD53EC182BFBF735
:1047C0006CFE94ED001B53EC112BFBF7BFFDBDEC11
:1047D000028B41EC100B70BD9FED070B10B553EC35
:1047E000102B9FED070B51EC100BFBF7B5FF41ECC5
:1047F000100B10BD000000000000000000000000D1
:10480000000000000000F03F10B553EC112B51ECFC
:10481000100BFBF79BFD41EC100B10BD00000000DE
:104820009FED050B10B553EC102B51EC100BFBF763
:1048300093FF41EC100B10BD0000000000000000D1
:104840009FED050B10B553EC102B51EC100BFBF743
:1048500024FE41EC100B10BD0000000000000070B1
:104860009FED050B10B553EC102B51EC100BFBF723
:1048700014FE41EC100B10BD000000000000001001
:1048800002E008C8121F08C1002AFAD17047704719
:10489000002001E001C1121F002AFBD17047000077
:1048A0000149086070470000500500202DE9FF5FB6
:1048B00082B00021DDE90430020DDDF840B0034391
:1048C00018D044F61050A2F2FF324243151411984A
:1048D00001281FD0A5EB0B00401C5FEA000A4FF037
:1048E00000064E4FDFF83891B046504615D5CAF154
:1048F000000413E0119801244AA3012801D16FEAB2
:104900000B010298119AC0E90031C0E9024206B0D9
:10491000BDE8F09FCBF10000DFE704460021404AEC
:10492000491842EB0450CDE9001012E0E00707D02F
:1049300032463B4640464946FBF7AFFD8046894636
:1049400032463B4610461946FBF7A7FD06460F4682
:104950006410002CEAD1DDE90401DDE90023BAF19D
:10496000000F06DAFBF799FD42464B46FBF795FD33
:1049700005E0FBF7F1FE42464B46FBF7EDFE044631
:104980000E460022284BFBF72BFE03D84FF0FF30DA
:10499000014607E00022254B20463146FBF7D6FCB6
:1049A000FBF760FF102409E0002C0ADB0A22002339
:1049B000FBF728FC039B30321A55641E50EA0102B3
:1049C000F2D1641C039AC4F111031444119A012A10
:1049D00003D0012208430DD10AE0084304D000208F
:1049E0004FF0110B119072E7A3EB0B056D1E0DE05C
:1049F0005B4504DD4FF0000205F1010504E003DA38
:104A00004FF00002A5F10105002AECD0029811999F
:104A1000C0E90231C0E9004579E700000000144018
:104A20000000F03F300000000000F0430000E03FD5
:104A30002DE9FF4F95B09A46884606460025EEE1DF
:104A4000252877D100242746F94A0121039400E064
:104A5000044316F8013F203B01FA03F01042F7D15E
:104A600030782A2811D06FF02F033078A0F130026F
:104A7000092A16D8039A44F0020402EB820203EBDF
:104A800042021044761C0390EFE758F8042B03927F
:104A9000002A03DA504244F40054039044F0020424
:104AA000761C30782E2816D116F8010F44F0040435
:104AB0002A280DD06FF02F023078A0F13003092B97
:104AC00009D807EB870302EB4303C718761CF3E70B
:104AD00058F8047B761C30786C280FD006DC4C2804
:104AE00017D068280DD06A2814D104E0742810D09B
:104AF0007A280FD10DE044F400140AE044F4801445
:104B000001E044F440147278824202D104F580142A
:104B1000761C761C307866280BD013DC582877D0AA
:104B200009DC002875D04528F6D04628F4D047285F
:104B30001AD193E118E0632835D0642879D065282C
:104B400012D18BE1702873D008DC6728F1D0692876
:104B50006FD06E280DD06F2806D1ACE073282CD012
:104B6000752874D0782853D05246179990476D1CF9
:104B700054E1C4F30250022809D003280DD0D8F81C
:104B8000001004280DD00D6008F1040846E1D8F8A3
:104B90000010EA17C1E90052F6E7D8F800100D80BE
:104BA000F2E70D70F0E718F8041B8DF800100020F4
:104BB0008DF80100EB46012003E058F804BB4FF0EC
:104BC000FF3061074FF0000102D40DE009F101014F
:104BD0008946B9420FDA8145F8DB1BF80910002934
:104BE000F4D108E009F1010189468142FADB1BF8A2
:104BF00009100029F6D103985346A0EB0907214676
:104C00003846179A00F080FA284400EB090507E0BF
:104C100044E008E10DE01BF8010B5246179990475C
:104C2000B9F10109F7D2534621463846179AF2E006
:104C300039E00A21C4F302524FF0000B0091022A1E
:104C400006D058F8040BC117032A09D00AE023E064
:104C500008F1070020F00702F2E80201904605E0A3
:104C600000B2C117042A01D140B2C117002906DAE7
:104C70000A460021404261EB02012D2202E022059A
:104C800004D52B228DF80420012203E0E20701D095
:104C90002022F7E7914657E00A2100E010214FF06B
:104CA000000B00910BE010214FF0000B44F00404C6
:104CB0000827009103E008204FF0000B0090C4F398
:104CC0000252022A05D058F8040B0021032A08D00A
:104CD00008E008F1070020F00702F2E80201904620
:104CE00003E080B2042A00D1C0B24FF000092207CD
:104CF0002AD53278702A07D0DDF800C08CF0100C6D
:104D00005CEA0B0C05D00EE040228DF80420012255
:104D100008E050EA010306D030238DF804308DF806
:104D2000052002229146009B83F0080353EA0B03FF
:104D30000AD150EA010201D1620705D530228DF86F
:104D400004204FF001097F1E3278582A04D039A27E
:104D50000C920CAA02920BE03BA2F9E75B46009A88
:104D6000FBF750FA0C9B9B5C029A521E0292137046
:104D700050EA0102F2D1029804A9081A00F1200BAE
:104D8000600702D524F4803400E001275F4502DD8E
:104D9000A7EB0B0000E0002000EB0B010090039854
:104DA0004944401A0390E00306D453462146179A1B
:104DB000039800F0A9F90544002706E001A852462F
:104DC000C05D179990476D1C7F1C4F45F6DBE003D3
:104DD0000CD553462146179A039800F095F90544DF
:104DE00004E030205246179990476D1C0099481EE8
:104DF00000900029F5DC08E00298029952460078FC
:104E0000491C0291179990476D1CBBF10001ABF151
:104E1000010BF1DC5BE100F065F90544761C3078AC
:104E200000287FF40DAE19B02846BDE8F08F0000D1
:104E30000928010030313233343536373839616270
:104E40006364656600000000303132333435363734
:104E5000383941424344454600000000600700D411
:104E6000062708F1070020F00700F0E8022380463B
:104E700003F0004C5FEA0C0001D097A009E0200588
:104E800001D596A005E0E00701D095A001E0AFF2C2
:104E90004C001390307823F0004365280CD006DCDA
:104EA000452809D046281DD047287FD13BE06628F9
:104EB00018D067287AD136E00021112F01DB1120AC
:104EC00000E0781CCDE9000104A90CA8FFF7EEFC76
:104ED000DDE90D010C9A4FF0000B07F1010910926A
:104EE00000914EE04FF000400097CDE9011004A979
:104EF0000CA8FFF7DBFCDDE90D020C9B0F994FF0CE
:104F0000000B91461093009211B9791C00EB010936
:104F1000B7EB090003D4C0F1FF3B07F10109A9EB8E
:104F20000700019042E0012F00DA01270021112F34
:104F300001DD112000E03846CDE9000104A90CA8EC
:104F4000FFF7B4FCDDE90D010C9A00914FF0000B66
:104F5000B946109221070FD4009A4A4503DA9146C8
:104F600001E0A9F10109B9F1010F05DD109AA9F1DC
:104F70000101515C3029F4D0B84202DA10F1040F7B
:104F800003DA0121CDE9011010E0002803DC83449D
:104F9000A9EB000102E0411C494500DD8946A0EB78
:104FA0000B00401C01904FF000400290200705D4F8
:104FB0000198484502DB4FF0FF30019000208DF84A
:104FC0004B0002980DF14B07B0F1004F25D00220A5
:104FD0000C902B200D90029800280CDA4042029091
:104FE0002D200D9007E00A210298FBF711FB3031CC
:104FF000029007F8011D0C99481E0C900029F2DC64
:1050000002980028EFD1791E0D980870307800F0D2
:10501000200040F0450007F8020D11A8C01BC01D7C
:1050200002901398007800B1012000EB090101986B
:1050300001EBE071029801440398401A401E03906E
:10504000E00306D453462146179A039800F05CF813
:1050500005441398007818B15246179990476D1C73
:10506000E00323D553462146179A039800F04CF8E5
:1050700005441BE0BBF1000F07DB0098584504DD39
:105080001098179910F80B0001E01799302052463C
:10509000904701980BF1010B401E05F101050190AD
:1050A00004D12E205246179990476D1CB9F100018A
:1050B000A9F10109DEDC05E017F8010B524617994A
:1050C00090476D1C0299481E02900029F4DC53465B
:1050D0002146179A03989EE62D0000002B00000041
:1050E000200000002DE9F041044600251E46174629
:1050F000880404D405E039462020B0476D1C641EA6
:10510000F9D52846BDE8F0812DE9F0410446002597
:105110001E469046C80301D5302700E020278804AA
:1051200004D505E041463846B0476D1C641EF9D5EC
:105130002846BDE8F0810A68531C0B601070704768
:1051400070B5104E044619E0A0892568C0050AD440
:10515000A06820B1FFF7F4FFA089C00503D420693F
:1051600008B171688847A089800503D4206A08B116
:10517000716888477168204688472C46002CE3D127
:1051800070BD000000000020806801E00068491E3A
:10519000002801D00029F9DC70478168002001E077
:1051A0000968401C0029FBD1704770B584680D4622
:1051B00000E024682CB1206A294600F047F8002856
:1051C000F7D1204670BD00000549282010B50968B8
:1051D0008847040002D02821FBF752F8204610BD72
:1051E0000000002000221146AFF300802DE9F041BD
:1051F00090460E460446FFF7E7FF134F05004FF0B9
:105200000000B86015D0204600F098FD0146284601
:1052100000F03AFD04000FD0B8F1000F10D0204686
:1052200000F08CFD0446007850B12846FFF788FF57
:10523000BC600020BDE8F0812846FFF781FFF8E759
:1052400006B134602846F5E70000002070B505007F
:105250000C4601D00CB108E009B1012070BD00205E
:1052600070BD0028FCD0641C6D1C2878FAF7FBFF89
:1052700006462078FAF7F7FF86422878F1D0FAF749
:10528000F2FF05462078FAF7EEFF281A70BD82B0CB
:10529000CDE9000121F0004001909DED000B02B02E
:1052A00051EC100B7047000008B501224FF0FF339E
:1052B00069468DF800000348FDF7F0FB9DF80000FB
:1052C00008BD00008418002010B5002821D0114B23
:1052D0000022001F196803E0814203D80A4649688A
:1052E0000029F9D152B11368841A9C4204D1006894
:1052F00018441060104602E0506000E0186039B1B8
:1053000002680B1A934203D10B681A440260496881
:10531000416010BD48050020FBF7DAFFFDF7A8FE4D
:10532000FDF746FCFDF70EFCFDF762FDFDF79CFD69
:10533000FDF78EFCFDF77AFDFDF7B4FDFDF7BCFC33
:10534000FDF7EEFCFDF720FD8A48FCF797FE8A4842
:10535000FCF794FE8948FCF791FE8948FCF78EFE25
:105360008849894B894A8A4809680C6844F01004C6
:105370000C6019680B6843F010030B6011680A6831
:1053800042F010020A600068016841F010010160FB
:1053900080494FF4C0627C48FDF760FB7EA0FEF7B9
:1053A00029FB834F002202213846FBF77DFF81A0B5
:1053B00000F006FD4FF4FA60FBF738FE7F4980A04D
:1053C000FEF718FB7D487FA1FAF771FF7F4C4FF481
:1053D0007A7512E07EA0FEF70DFBFBF7EFFA75A0E1
:1053E00000F0EEFC2846FBF721FE744974A0FEF79E
:1053F00001FB724873A1FAF75AFF0028A061E9D0B7
:1054000079A0FEF7F7FA4FF4FA763046FBF70EFE76
:10541000FBF7D4FA7CA000F0D3FC2846FBF706FE8D
:10542000664967A0FEF7E6FA7BA10FE07DA0FEF7D4
:10543000E1FAFBF7C3FA80A000F0C2FC2846FBF7B4
:10544000F5FD5E495EA0FEF7D5FA7FA15B48FAF74D
:105450002EFF0028A061E9D07EA0FEF7CBFA3046EF
:10546000FBF7E4FDFBF7AAFA814800F0A9FC40F63F
:10547000C410FBF7DBFD514951A0FEF7BBFA4F48C2
:105480007CA1FAF714FFA0617DA0FEF7B3FAFBF749
:1054900095FA012238460221FBF706FF83A0FEF7AA
:1054A000A9FA012020704948002565702830FAF7D4
:1054B0001AFFE0808348FAF716FF20818248FAF746
:1054C00012FF60813046FBF7B1FD00223846012112
:1054D000FBF7EAFEFBF772FAA078012806D16420F8
:1054E000FBF7A4FD794800F06BFCA57060780128FB
:1054F000F2D1324876A1FAF7DAFEE06118B12F490D
:105500002FA0FEF777FA2D4873A1FAF7D0FE20629C
:10551000E169002929D058B1FBF762FAFBF71AFBC1
:10552000FDF7E2FCFBF74AFAE069F0B1206AF0B956
:10553000224923A0FEF75EFA20486BA1FAF7B7FED6
:10554000606280B16DA0FEF755FA0120FDF72CFDD9
:105550006420FBF76BFD6F4800F032FC6EA0FEF795
:1055600049FAFBF72BFAE06908B9FBF727FA6570EF
:10557000B2E7000054170020A0170020EC1700200D
:1055800038180020841800200C19002094190020DD
:105590001C1A00205405002073746D333220696E8C
:1055A000697420626567696E2E2E2E0A0000000065
:1055B000000402404154490D0A000000540B002031
:1055C000257300004669626F636F6D000C00002058
:1055D000517565727920696E666F206661696C65C8
:1055E000642121210A000000312E676F7420746845
:1055F0006520636F72726563742076657273696F7C
:105600006E2E2E2E0A00000041542B4D495043416E
:105610004C4C3F0D0A0000002B4D495043414C4C6F
:105620003A203100676F74206E6F6E6520495020FC
:105630006E6F772121210A0041542B4D495043417F
:105640004C4C3D310D0A00002B4D495043414C4C10
:105650003A200000322E676F74207468652049502C
:1056600020616464726573732E2E2E0A00000000A0
:10567000985E00082B484D434F4E204F4B000000D2
:10568000332E487561776569436C6F756420636F6D
:105690006E6E6563746564207375636365737366AA
:1056A000756C6C792E2E2E0A0000000073746D3319
:1056B0003220696E697420737563636573732E2E6F
:1056C0002E0A00003403002034040020340100209E
:1056D0002B484D52454300002253656E644172725F
:1056E0006179227D220D0A00226361725F73746FFB
:1056F00070223A307D7D5D7D220D0A0075706461F7
:1057000074652070726F706572746965732E2E2EC9
:105710000A000000340200207265736574666C61D3
:105720006720737563636573732E2E2E0A00000065
:10573000F0B50B30154D20F007010024144A0FE09E
:1057400003688B420BD38B4205D95E1A4318476816
:10575000C3E9006700E04368136002C004E0021D73
:1057600010680028ECD12046002802D1286808B132
:105770000020F0BD064A07481060074A121A22F0BE
:105780000702C0E9002401202860D7E74C0500206B
:10579000480500202C1C0020285C00202DE9F04149
:1057A000044608781A4E5B2801D0B1602BE0052032
:1057B000E060481C00F0C2FA074600785D2806D079
:1057C000FFF702FD051EA06002D038460AE0781CF3
:1057D000BDE8F081FFF7F8FC0028F9D028604560AB
:1057E0000546601C00F0AAFA0146284600F04CFA73
:1057F00000F0A4FA040006D020782C28EAD0207803
:105800005D2802D0B4600020E2E7601CE0E7000001
:10581000000000200178A1F13002092A01D81146C8
:105820000AE0A1F14102052A01D8373904E0A1F1CB
:105830006102052A3FD857390A0110F8011FA1F16A
:105840003003092B01D8303A0AE0A1F14103052BBE
:1058500001D8373A04E0A1F16103052B2BD8573A60
:1058600011440A0110F8011FA1F13003092B01D8DE
:10587000303A0AE0A1F14103052B01D8373A04E0A0
:10588000A1F16103052B16D8573A40781144A0F1D5
:1058900030020901092A01D8303904E0A0F141029F
:1058A000052A02D8373908447047A0F16102052A59
:1058B00001D85739F7E70020704700002DE9F04183
:1058C00006460C462DED0C8B08789FED598B9FED0D
:1058D0005ACB002501272D28B0EE4CBAF0EE6CBA59
:1058E000B0EE489AF0EE689A02D14C1C9FED54BB82
:1058F0002078302800D1641C20789FED53AB3138DC
:1059000008281AD814F8010B3038FAF738FE41ECA1
:105910001D0BB0EE4A0AF0EE6A0A53EC102B51EC64
:10592000180BFAF7BAFD53EC1D2BFAF70FFD41ECFB
:10593000180B207830380928E4D920782E282CD16B
:105940006078302847D3392845D8641CB0EE4CDA4B
:10595000F0EE6CDA14F8010B3038FAF710FE41EC77
:105960001C0BB0EE4A0AF0EE6A0A53EC102B51EC15
:10597000180BFAF792FD53EC1C2BFAF7E7FC41ECFD
:10598000180B53EC1D2B51EC190BFAF780FD41EC71
:10599000190B207830380928DCD92078652801D007
:1059A000452818D114F8010F2B2802D02D280FD02C
:1059B00000E0641C6FF02F012078A0F13002092A6A
:1059C00009D805EB850201EB42028518641CF3E758
:1059D0004FF0FF37EDE705FB07F0FAF7D0FD53EC8A
:1059E000192BFAF7B3FC41EC110BB0EE4A0AF0EEBA
:1059F0006A0AFEF74DF8B0EE409AF0EE609A53EC6A
:105A0000182B51EC1B0BFAF748FD53EC192BFAF746
:105A100044FD41EC100B86ED060BFAF7C1FD0321A6
:105A2000F16070612046BDEC0C8BBDE8F081000098
:105A30000000000000000000000000000000F03F37
:105A4000000000000000F0BF000000000000244043
:105A50002DE9F04105460878294E7B2801D0B16038
:105A600031E00620E860481C00F068F9074600783D
:105A70007D2811D0FFF7A8FB041EA8600DD0384682
:105A800000F05CF90146204600F03CF800F056F9C1
:105A9000002802D000272AE0781CBDE8F081B06021
:105AA00011E0401C00F04AF90146204600F0ECF8F5
:105AB00000F044F9051EF0D028782C2805D028786D
:105AC0007D281BD0B5600020E7E7FFF77DFB0028AD
:105AD000E3D0206044600446681C00F02FF90146C2
