:020000040800F2
:1000000068670020A1010008432500088D22000830
:100010004125000879090008393100080000000076
:10002000000000000000000000000000D5290008CA
:10003000890A0008000000008B2800082D2A00080B
:10004000BB010008BB010008BB010008BB010008A0
:10005000BB010008BB010008BB010008BB01000890
:10006000BB010008BB010008BB010008BB01000880
:10007000BB010008BB010008BB010008BB01000870
:10008000CD090008BB010008BB010008BB01000846
:10009000BB010008BB010008BB010008BB01000850
:1000A000BB010008BB010008BB010008BB01000840
:1000B000D52A0008BB010008BB010008BB010008ED
:1000C000BB010008BB010008BB010008BB01000820
:1000D000BB0100084D30000865300008BB01000876
:1000E000BB010008BB010008BB010008BB01000800
:1000F000BB010008BB010008BB010008BB010008F0
:10010000BB010008BB010008BB010008BB010008DF
:10011000BB010008BB010008BB010008BB010008CF
:10012000BB010008BB010008D9090008BB01000899
:10013000BB010008BB010008BB010008BB010008AF
:10014000BB010008BB010008BB010008BB0100089F
:10015000BB010008BB010008BB010008BB0100088F
:10016000BB010008BB010008BB010008BB0100087F
:10017000BB010008BB010008BB0100080000000033
:10018000BB010008BB010008DFF810D000F062FBE3
:1001900000480047614A0008AFF30080686700200C
:1001A0000648804706480047FEE7FEE7FEE7FEE711
:1001B000FEE7FEE7FEE7FEE7FEE7FEE7C52A0008EA
:1001C000890100082DE9F05F0546002092469B4614
:1001D00088460646814640241BE02846414647465D
:1001E000224600F01AFA53465A46C01A914110D3DB
:1001F00011461846224600F001FA2D1A67EB010855
:100200004F4622460120002100F0F8F917EB0009C3
:100210004E41201EA4F10104DFDC484631462A4647
:100220004346BDE8F09FA0F14101192900D82030D4
:100230007047D2B201E000F8012B491EFBD2704793
:100240000022F6E710B513460A4604461946FFF7A2
:10025000F0FF204610BD421E12F8013F002BFBD1DB
:1002600011F8013B02F8013B002BF9D1704730B582
:1002700005462A460B4612F8010B13F8014B08B14C
:10028000A042F8D01CB1002802D06D1CF1E728462E
:1002900030BDCAB2401E10F8011F8A4202D00029A8
:1002A000F9D100207047421C10F8011B0029FBD136
:1002B000801A704710B5044600E0401C0378002BFC
:1002C000FBD100E0401C521E04D311F8013B037027
:1002D000002BF7D100210170204610BD034611F814
:1002E000012B00F8012B002AF9D11846704730B5D0
:1002F00005460020034600E05B1C934205D2EC5CFF
:10030000C85C201A01D1002CF6D130BD2DE9FE4F7A
:10031000804681EA0300C00F0C46009021F00041A6
:1003200023F00045B8EB0200A94105D24046214622
:1003300090461C460B46024623F00040104347D02F
:10034000270DC7F30A00C3F30A510290401A019027
:1003500040286BDAC3F3130040F4801B00989246E8
:1003600020B10023D2EB030A63EB0B0B0198594633
:10037000C0F14002504600F041F906460D46504695
:100380005946019A00F059F910EB08006141002428
:1003900087EA115284EAE7731A4340D0009A62B3A5
:1003A000019A012A4FEA075215DC001B61EB02019A
:1003B0004FF0004202EA0752CDE90042001C41F52D
:1003C000801132462B4600F059F903B0BDE8F08F9A
:1003D00040462146F9E7001B61EB0201001C41F594
:1003E000801300185B412018A2F5001747EB0301AA
:1003F00040EAD570B6196D4111E06D084FEA360636
:1004000045EAC0754FEA0752001B61EB0201001C70
:1004100041F5801149084FEA300000195141324638
:100420002B4603B0BDE8F04F00F019B90098012247
:1004300040000023D0EB020263EBE07300982146FA
:100440004FEAE074B8EB000061EB0401E9E783F0E8
:1004500000435BE781F0004158E72DE9FE4F81EA58
:10046000030404F0004421F0004100944FF0000B1D
:1004700023F0004350EA01045ED052EA03045BD04B
:10048000C3F30A54C1F30A552C44A4F2F334019483
:10049000A0FB0254C1F3130141F48011C3F3130311
:1004A00043F4801301FB024400FB034E840A970AC5
:1004B00044EA815447EA8357A4FB076802958D0AF2
:1004C00005FB07854FEA932C04FB0C542705029D7E
:1004D0004FEA065847EA1637B5EB08056EEB070CEE
:1004E000870E920E47EA811742EA8312A7FB0201A8
:1004F000B6EB0B0164EB00042B0D43EA0C335E18E2
:1005000044EB1C50DA465146E7FB0201C5F31304E5
:100510004FEA0B3343EA14534FEA0432019C43EA97
:100520000603A4F10C040294009CCDE900B400F091
:10053000A5F803B0BDE8F08F00200146F9E70EB53D
:10054000C10F80EAE0700844CA07002140F233433B
:100550008DE80E000A460B4600F090F803B000BD8F
:1005600070B5C1F30A5201F000450024C1F3130134
:1005700040F2FF3341F480119A4201DA002070BD4D
:1005800040F233439A42A2F2334203DC524200F07B
:1005900044F800E090402C43F1D0404270BD000090
:1005A00030B5041E71F1000404DB4FF000444042FA
:1005B00064EB0101141E73F1000405DB1C464FF0CF
:1005C0000043524263EB0403994208BF904230BD9E
:1005D00030B50B46014600202022012409E021FA13
:1005E00002F59D4205D303FA02F5491B04FA02F510
:1005F0002844151EA2F10102F1DC30BD202A04DBE3
:10060000203A00FA02F1002070479140C2F1200325
:1006100020FA03F3194390407047202A04DB203A64
:1006200021FA02F00021704721FA02F3D040C2F112
:1006300020029140084319467047202A06DBCB1759
:10064000203A41FA02F043EAE07306E041FA02F38D
:10065000D040C2F12002914008431946704710B5BE
:10066000141E73F1000408DA401C41F100019218D5
:100670005B411A4301D120F0010010BD2DE9F04D7E
:1006800092469B4611B1B1FA81F202E0B0FA80F2D3
:1006900020329046FFF7B2FF04460F4640EA0A00B8
:1006A00041EA0B0153465A46084313D0114653EA18
:1006B000010019D0C8F140025046FFF7AEFF0546D1
:1006C0000E46504659464246FFF798FF084305D06C
:1006D000012004E020463946BDE8F08D00200543A6
:1006E00046EAE0762C4337430A986305E40AA0EB18
:1006F00008000022FD0A44EA47540A3002D50020CF
:100700000146E9E7010510196941DDE908450019CD
:100710006941BDE8F04DA2E72DE9F04D81EA0304FF
:1007200004F0004B21F0004514464FF0000A23F07E
:10073000004150EA050220D054EA01021DD0C5F361
:100740000A570246C5F31303C1F31300C1F30A5657
:1007500040F4801543F48013A7EB0608101BD6461F
:1007600008F2FD3873EB050002D308F1010801E03F
:1007700092185B41B8F1000F03DA00200146BDE892
:10078000F08D00204FF48011064684460EE0171BC2
:1007900073EB050705D3121B63EB050306434CEA15
:1007A000010C49084FEA300092185B4150EA0107FA
:1007B000EDD152EA030012D082EA040083EA050177
:1007C000084305D0101BAB4106D20122002306E0EE
:1007D00000224FF0004302E06FF0010253101AEBC9
:1007E00006004CEB085110EB0A0041EB0B01BDE891
:1007F000F04DFFF734BF70B521F0004303430CD038
:10080000C1F30A550024D5EB040564EB0403D617A5
:10081000AD1AB34102DB0020014670BD201841EB48
:10082000025170BDC1F30A52C1F3130140F2FF330C
:1008300041F480119A4202DA00200146704740F2EA
:1008400033439A42A2F2334202DC5242FFF7E5BE42
:10085000FFF7D4BE064C074D06E0E06840F0010308
:1008600094E8070098471034AC42F6D3FFF790FCA9
:1008700098740008B87400082DE9F04D00231A465A
:100880001B1A8A4103DB00200146BDE8F08DC1F34D
:100890000A52C1F3130141F480154FF0000BD10748
:1008A00002D100186D41521E0027044640F2FF118C
:1008B000384601EB620A3E468046024600204FF46D
:1008C0008011FFF7AAFEC2197141BB1846EB010067
:1008D000B4EB030C75EB000C04D3E41A65EB0005D4
:1008E00017460E46241908F101006D418046342850
:1008F000E3DDF91946EB0600091BA84103D24FF0CE
:10090000FF32134601E0002213461BEB070046EBC3
:100910000A51BDE8F04DFFF7A2BE70B58D1810F872
:10092000014B14F0030201D110F8012B231106D161
:1009300010F8013B03E010F8016B01F8016B521E47
:10094000F9D1ABB110F8012B04F00C048A1A0C2C6D
:1009500003D0A2EB84129B1C08E010F8014BA2EB21
:100960000422F8E712F8014B01F8014B5B1EF9D5A0
:10097000A942D4D3002070BDFEE7000010B5064C9C
:100980000648E189491CFFF75BFC0020E081A0617B
:1009900060622062E06110BD0C000020D4110020D4
:1009A00070B5084C206908B103F06EFF00254FF4C4
:1009B000006105482561FFF743FC6561E57025711D
:1009C00070BD00000C000020D4190020014800F088
:1009D00053B9000004230020014800F04DB9000085
:1009E000A422002001681823CAB2103AB2FBF3F225
:1009F000054B6FF30901032A9B5CC36500D9091DF0
:100A00008165084670470000D372000810B50146A2
:100A100000208B698A6A4FF0C07453B1B3F5005F50
:100A200015D072B1012A0CD0022A0AD0032A09D1AA
:100A300004E01AB1012A06D0022A03D1C96AC90109
:100A400000D5012010BDC96AA142FAD010BD002A0C
:100A5000F7D0012AF2D0022AF3D0032AF3D010BD36
:100A600030B50468256825F4802525600468636036
:100A70008368402B036803D099600068C26030BD72
:100A80009A600068C16030BD704772B6FEE7000032
:100A900070B515460446FFF7DEFB07A12046FFF7B9
:100AA000DAFB29462046FFF7D6FB2046BDE870401A
:100AB00002A1FFF7D0BB00002C0000005D7D7D5D32
:100AC0007D220D0A0000000070B51CA12248FFF72E
:100AD000CEFB010014D02148FFF700FC20A11F48E5
:100AE000FFF7C5FB00210D464554491CC9B2032937
:100AF000FAD91A4803F01AFF1A4C206110B106E027
:100B0000002070BD154803F011FF206190B116A1BF
:100B100003F0EFFE16A103F0ECFE6061024618A0A0
:100B2000216902F00BFB606903F0DBFEE0702571C8
:100B3000012070BD1CA002F001FBE1E77B22706187
:100B4000726173223A7B226C6F636174696F6E5FAE
:100B50006172726179223A00D4110020D419002008
:100B6000220D0A000C000020706172617300000009
:100B70006C6F636174696F6E5F617272617900009E
:100B8000726F6F7420616464726573733A202570AC
:100B90002C20617272617920616464726573733AAA
:100BA0002025700A000000006A736F6E2070617269
:100BB0007365206661696C65642121210A0000006B
:100BC0002DE9F0410446876D00F0E0FA064694F8FE
:100BD00035000025022806D08020606584F8345056
:100BE0000120BDE8F0812068016821F01601016054
:100BF0002068416921F080014161206C08B9A06C36
:100C000020B12068016821F00801016020680168B6
:100C100021F0010101600CE000F0B8FA801B05280A
:100C200007D920206065032084F8350084F834500B
:100C3000D7E720680068C007EED194F85C103F2029
:100C40008840B860012084F8350084F834500020D2
:100C5000C7E790F83510022903D0802141650120B3
:100C60007047052180F835100068016821F0010106
:100C700001600020704700002DE9F84304464FF062
:100C80000009CDF8009063484FF41651A56D006837
:100C9000B0FBF1F72E6894F85C10082000FA01F11F
:100CA00031420FD021680A6852070BD50A6822F03A
:100CB00004020A6094F85C108840A860606D40F0FF
:100CC0000100606594F85C104FF0010808FA01F02B
:100CD000304208D021684969090604D5A860606DD2
:100CE00040F00200606594F85C10042088403042B7
:100CF00008D021680968890704D5A860606D40F0B4
:100D00000400606594F85C1010208840304218D0D0
:100D100021680968090714D5A8602068016849039B
:100D200004D50068000308D5A16C07E00168C90577
:100D300003D4016821F008010160216C09B120464B
:100D4000884794F85C1020208840304231D02168D8
:100D50000968C9062DD5A86094F8350005282068D3
:100D6000016806D0490347D5006800031DD4616CB3
:100D70001CE021F0160101602068416921F080012A
:100D80004161206C08B9A06C20B12068016821F095
:100D90000801016094F85C103F208840A86084F846
:100DA000358084F83490216D1FE0E16B09B1204655
:100DB0008847606D00282BD0606DC00714D00520D7
:100DC00084F835002068016821F001010160009875
:100DD000401C0090B84203D820680068C007F6D1D4
:100DE00084F8358084F83490E16C002910D001B08B
:100DF0002046BDE8F04308470168C905D5D401681D
:100E000021F01001016084F8358084F83490CCE73B
:100E1000BDE8F883400500202DE9F041044600F0CC
:100E2000B5F906465CB1022084F83500002584F847
:100E300034502068016821F0010101600DE00120BB
:100E4000BDE8F08100F0A2F9801B052805D920201B
:100E50006065032084F83500F2E720680068C00769
:100E6000F0D12268116820480140D4E901031843F9
:100E7000D4E903363343184363691843A36918431D
:100E8000E3691843236A18430843616A042903D1BC
:100E9000D4E90B1319430843106020684069666A5F
:100EA00020F0070130460E43012704280CD1A06A28
:100EB0000643E06A40B12046FFF7A8FD20B140207C
:100EC000606584F83570BAE7206846612046FFF710
:100ED00089FD94F85C203F2191408160656584F82C
:100EE00035700020ACE700003F8010F02DE9F041A4
:100EF0000446866D90F83400002501280DD00120AD
:100F000084F8340094F835700020012F07D084F85D
:100F1000340002252846BDE8F0810220FBE70227C5
:100F200084F8357060652046FFF79AFD94F85C10F0
:100F30003F208840B0602068016841F016010160E0
:100F4000206C20B12068016841F008010160206830
:100F5000016841F001010160DCE7000070B5044662
:100F600000F014F90546601C02D0044800780444DF
:100F700000F00CF9401BA042FAD370BD34050020EC
:100F80002DE9F84FDFF8BCA10022012503264FF020
:100F90000F090AF1040BAAF1040E00BF0B6805FA51
:100FA00002F42340A34270D10F7907F00307012F09
:100FB00001D0022F16D187684FEA420806FA08FCD2
:100FC00027EA0C07D1F80CC00CFA08FC4CEA070C15
:100FD000C0F808C04768A7430C79C4F300149440D4
:100FE0003C4344600C79E443A4070AD0C4684FEA48
:100FF000420C06FA0CF7BC438F6807FA0CF727433C
:10100000C7600C7904F00304022C12D1D40800EB61
:10101000840CDCF820405707FF0E09FA07F824EA91
:101020000804D1F8108008FA07F848EA0408CCF858
:10103000208004684FEA420C06FA0CF7BC430F7993
:1010400007F0030707FA0CF7274307604C6814F40E
:10105000403F70D03C4C276847F4804727602468A5
:1010600022F0030704F480440094384C07EB040C8E
:10107000DCF8084897074FEA177809FA08F7BC43E5
:10108000334FB84202D1002724E054E0314FB84238
:1010900001D101271EE0304FB84201D1022719E0EB
:1010A0002E4FB84201D1032714E02D4FB84201D191
:1010B00004270FE02B4FB84201D105270AE02A4F41
:1010C000B84201D1062705E0284FB84201D10727D1
:1010D00000E0082707FA08F72743CCF80878DAF881
:1010E00000405746D1F804C09C435FEACC2C00D5A1
:1010F0001C433C60DBF800405F46D1F804C09C43D1
:101100005FEA8C2C00D51C433C60DEF8004077463B
:10111000D1F804C09C435FEA8C3C00D51C433C6082
:10112000084F083F3C68D1F804C09C435FEACC3CC0
:1011300000D51C433C60521C102AFFF42FAFBDE8C1
:10114000F88F0000083C0140443802400030014064
:10115000000002400004024000080240000C02406F
:10116000001002400014024000180240001C02401F
:10117000426921EA02030A4043EA02418161704761
:101180000AB1816170470904FBE7000001488068EB
:10119000704700003405002002488168027811443D
:1011A00081607047340500200B4810B5016841F498
:1011B00000710160016841F480610160016841F4DF
:1011C00080710160032000F06FF80F2000F006F836
:1011D00000F024F8002010BD003C024070B50D4D19
:1011E00004464FF47A712878B1FBF0F00A49096897
:1011F000B1FBF0F000F00AFB48B9102C07D2002236
:101200002146501E00F030F800206C6070BD0120B7
:1012100070BD000034050020400500200A4808B5D4
:10122000016841F480410160006800F48040009052
:101230000548001F016841F080510160006800F01E
:101240008050009008BD000044380240002809DBAF
:1012500000F01F02012191404009800000F1E020D0
:10126000C0F8001170470000F0B40E4B1B680C462C
:10127000C3F30223C3F10705042D00D90425191D6A
:10128000072901D2002300E0DB1E012606FA05F142
:10129000491E214099409E40761E16403143F0BCC5
:1012A00001F088BF0CED00E0064900F00702086875
:1012B0004FF6FF03184040EA0220034A104308603B
:1012C000704700000CED00E00000FA052DE9F04742
:1012D0000E46050065D0DFF81481D8F80000F7B29B
:1012E00000F00700B04207D288F80070D8F800007C
:1012F00000F00700B04254D128683D4C810712D558
:10130000400703D5206840F4E050206028780007AB
:1013100003D5206840F4604020602068A96820F070
:10132000F000084320602878C0072DD03049686855
:101330000839012812D0022813D0032811D00968D7
:10134000890700292DDA216821F00301014321607A
:10135000FFF71CFF814641F2883A0EE009688903D5
:10136000EFE709688901ECE7FFF710FFA0EB09013F
:10137000514502D90320BDE8F0872068696800F074
:101380000C00B0EB810FEFD1D8F80010404601F00F
:101390000701B14207D90770006800F00700B042AA
:1013A00001D00120E7E72878400705D52068E968E3
:1013B00020F4E050084320602878000706D5206814
:1013C000296920F4604040EAC100206000F038F84C
:1013D0002168084AC1F30311515CC84006490860FE
:1013E00006480068FFF7FAFE0020C4E7003C024010
:1013F00008380240DB720008400500203805002054
:101400000448054900680968044AC1F38221515C17
:10141000C84070474005002008380240EB720008C1
:101420000448054900680968044AC1F34231515C27
:10143000C84070474005002008380240EB720008A1
:10144000154810B5006810F00C02144813D0411074
:10145000042A0FD0082A0ED10F4C241F22682368BB
:1014600002F03F025B0207D52068C0F38810A0FBA2
:10147000010106E0084610BD2168C1F38811A1FBF7
:1014800000010023FEF79EFE2168C1F30141491CC3
:101490004900B0FBF1F010BD083802400024F40010
:1014A0002DE9F84F04006ED02078DFF84C93C00788
:1014B000A9F104054AD009F104000168C1F38101D2
:1014C000012908D00068C0F3810002280AD1D9F8A8
:1014D0000000400206D52868800337D560680028E0
:1014E000E1D033E06068B0F5803F10D0B0F5A02FB8
:1014F000286810D020F480302860286820F48020EC
:1015000028606068A8B1FFF741FE06460DE0286834
:1015100040F48030F4E740F480202860F7E700BF13
:10152000FFF734FE801B642873D828688003F7D542
:101530000CE0FFF72BFE064605E000BFFFF726FE96
:10154000801B6428F0D828688003F7D42078DFF85F
:10155000AC8280074FF0000A3ED5A748001D016805
:1015600011F00C0F08D00068C0F3810002280BD1E5
:10157000D9F80000400207D42868800716D5E06833
:10158000012800D112E033E1E068B8B10120C8F8C9
:101590000000FFF7FBFD064605E000BFFFF7F6FD84
:1015A000801B0228C0D828688007F7D528682169E1
:1015B00020F0F80040EAC10028600DE0C8F800A063
:1015C000FFF7E4FD064604E0FFF7E0FD801B02287C
:1015D0001FD828688007F7D42078000722D5864FC7
:1015E00087486169703771B101210160FFF7CEFD55
:1015F000064604E0FFF7CAFD801B022809D83868B8
:101600008007F7D50EE0C0F800A0FFF7BFFD064643
:1016100005E082E0FFF7BAFD801B02287DD838681C
:101620008007F7D42078400768D5DFF8CCB10027D1
:101630000BF13C0BDBF80000C0000BD4DBF8001012
:1016400041F08051CBF80010DBF80000012700F0DA
:10165000805000906B4E3068C00510D4306840F464
:1016600080703060FFF792FD009005E0FFF78EFD7F
:101670000099401A022850D83068C005F6D55E4E51
:10168000A0686C3601280FD00528306810D020F0F3
:1016900001003060306820F004003060A068B8B10C
:1016A000FFF774FD00900FE0306840F00100F4E7B0
:1016B00040F004003060F7E7FFF768FD0099411A39
:1016C00041F28830814266D830688007F4D50EE058
:1016D000FFF75CFD009007E0FFF758FD0099411A05
:1016E00041F28830814256D830688007F4D42FB157
:1016F000DBF8001021F08051CBF80010A069C8B3CE
:101700003D49091D0968C1F3810102294AD0022817
:10171000504607D0C8F8600000E03CE0FFF736FD17
:1017200004463BE04746C8F86000FFF72FFD064639
:1017300005E000BFFFF72AFD801B02282BD8286890
:101740008001F7D4D4E907010843A16A2E4A490869
:1017500002EB0141626A41EA8211084394F82C10BD
:1017600040EA0161C9F8001001203866FFF70EFD5C
:10177000044606E03EE000BFFFF708FD001B02281C
:1017800009D828688001F7D534E000BFFFF7FEFCD8
:10179000001B022802D90320BDE8F88F28688001C9
:1017A000F4D427E00128F7D0D9F80000E26900F46A
:1017B000800191421CD1226A00F03F01914217D171
:1017C00047F6C071626A0140B1EB821F10D1A26A74
:1017D0004FF0FF3300F4403103EB5202B1EB024F04
:1017E00006D194F82C1000F07060B0EB016F01D0BE
:1017F0000120D1E70020CFE7043802400000474233
:10180000800E4742007000400000FFFF10B5401EF0
:10181000B0F1807F01D3012010BD4FF0E024606162
:101820000F21601701F0C6FC0020A0610720206195
:10183000002010BD7047704770B590F83C20012A19
:1018400032D0012480F83C40022280F83D20036819
:101850005A689D6822F070060A6832435A60134B3A
:1018600002689A4214D0B2F1804F11D0104B9A42C4
:101870000ED0104B9A420BD00F4B9A4208D00F4B10
:101880009A4205D00E4B9A4202D00E4B9A4204D196
:10189000496825F080031943916080F83D4000219C
:1018A00080F83C10084670BD022070BD0000014069
:1018B0000004004000080040000C0040000401400B
:1018C000004001400018004010B5040003D094F817
:1018D0003D0010B107E0012010BD002084F83C005D
:1018E000204600F01FF8022084F83D00211D2068EA
:1018F00001F0F6F8012084F8460084F83E0084F8F0
:101900003F0084F8400084F8410084F8420084F8E5
:10191000430084F8440084F8450084F83D0000202A
:1019200010BD000008B50068B0F1804F12D10A4820
:10193000016841F0010101600068002200F001002F
:10194000009011461C20FFF78FFCBDE808401C20CA
:10195000FFF77CBC08BD00004038024090F83D1005
:10196000012901D001207047022180F83D10016853
:10197000CA6842F00102CA6000681149884214D066
:10198000B0F1804F11D00F4988420ED00E498842E5
:101990000BD00E49884208D00D49884205D00D4928
:1019A000884202D00C49884204D1816801F00701C5
:1019B000062903D0016841F0010101600020704751
:1019C000000001400004004000080040000C0040FE
:1019D00000040140004001400018004070B504467A
:1019E00090F83C000025012817D0012684F83C60BF
:1019F000022084F83D002068826822F0770222F4F9
:101A00007F4282600868502838D00DDC20284FD0F3
:101A100005DC90B3102811D14AE0022070BD3028B7
:101A200046D040280AD13BE060282FD070280DD046
:101A3000B0F5805F03D0B0F5005F12D0012584F8C7
:101A40003D60002084F83C00284670BDCB68D1E999
:101A50000121206801F0A8F82068816841F0770131
:101A600009E0CB68D1E90121206801F09DF82068E8
:101A7000816841F480418160E1E719E0CA68496802
:101A8000206801F0A3F85021206806E0CA68496880
:101A9000206801F0ACF86021206801F08FF8CEE7F3
:101AA000CA684968206801F091F840212068F4E78D
:101AB000226801461046F0E7704770B5044600689A
:101AC00001694FF00005C943890715D4C168C943AE
:101AD000890711D4E91E01610120207720688069FF
:101AE0008007204602D0FFF7E7FF04E000F098F8F7
:101AF000204600F096F8257720680169C943490718
:101B000017D4C168C943490713D46FF004010161B8
:101B1000022020772068806910F4407F204602D0A0
:101B2000FFF7CAFF04E000F07BF8204600F079F8E8
:101B3000257720680169C943090716D4C168C943DC
:101B4000090712D46FF00801016104202077206892
:101B5000C0698007204602D0FFF7AEFF04E000F026
:101B60005FF8204600F05DF8257720680169C943D9
:101B7000C90617D4C168C943C90613D46FF0100150
:101B80000161082020772068C06910F4407F20465A
:101B900002D0FFF791FF04E000F042F8204600F089
:101BA00040F8257720680169C943C90708D1C16891
:101BB000C943C90704D1891E0161204600F032F8EB
:101BC00020680169C943090609D4C168C9430906E7
:101BD00005D46FF0800101612046FFF72BFE2068DD
:101BE0000169C943490609D4C168C943490605D4F6
:101BF0006FF040010161204600F084F8206801691F
:101C0000C94389060BD4C168C943890607D46FF05C
:101C1000200101612046BDE87040FFF70CBE70BD99
:101C20007047704770B5006890B0B0F1804F5ED1DA
:101C3000304D4FF400712846FFF79AFA2E4CE078A9
:101C4000002854D029152846FFF792FA2179481C1C
:101C50002071606902F03CFE0546002102F038FE6A
:101C600006460121284602F033FE96ED060B054696
:101C700053EC102B21A10AA801F070FA95ED060B88
:101C80001EA153EC102B0DA801F068FA242101A825
:101C9000FEF7D6FA0DAA0AA901A8FEF7F9FEE08818
:101CA00004F12805284401A9FEF718FB284603F093
:101CB000F5FBE088C0F580712844FEF7C1FA207971
:101CC000E1780125884202D3FEF76AFEA570102351
:101CD0000AAA12210020009500F09EFD10230DAAF3
:101CE00024210020009500F097FD00F0EFFC10B0DB
:101CF00070BD0000001402400C000020252E366646
:101D0000000000007047704710B504460068406945
:101D100094F83D10C0F3C010212911D180B1206882
:101D2000143050E8001F21F0800140E80012002A22
:101D3000F5D1606B08B1FEF743FF204601F00BF8C8
:101D40002068406994F83E10C0F38010222911D118
:101D500080B12068143050E8001F21F0400140E8B5
:101D60000012002AF5D1A06B08B1FEF729FF20462A
:101D700000F0CAFF002010BD70470000F8B50168F0
:101D800004460868CA684B6910F00F0F4FF0000551
:101D900059D003F0010602F49077374365D0C107AC
:101DA00005D0D10503D5216C41F001012164410723
:101DB00005D5D90703D0216C41F0020121648107C8
:101DC00005D5D90703D0216C41F004012164010736
:101DD00007D502F02001314303D0216C41F0080106
:101DE0002164216C00293AD0800604D5900602D5E2
:101DF000204600F0BEFF20684069216CC0F38010CF
:101E0000090700D460B3204600F07EFF20684069D7
:101E1000400621D52068143050E8001F21F0400111
:101E200040E80012002AF5D1A06BA8B16C49016509
:101E3000A06BFEF70EFF002811D0A06B016D01B062
:101E4000BDE8F040084783060FD593060DD5204620
:101E5000BDE8F84000F08DBF2046FFF78DFFF8BDCC
:101E60002046FFF789FF2564F8BD266B2023012E4D
:101E700079D1C60677D5D60675D50868486800902A
:101E80004869400640D5A16B086840680004000C12
:101E9000EAD0A28D8242E7D9E085C869B0F5807F9B
:101EA0002DD020680C3050E8001F21F4807140E8EC
:101EB0000012002AF5D12068143050E8001F21F0EC
:101EC000010140E80012002AF5D12068143050E8E2
:101ED000001F21F0400140E80012002AF5D184F8EB
:101EE0003E30256320680C3050E8001F21F01001BF
:101EF00040E80012002AF5D1A06BFEF761FEA08D2C
:101F0000E18D401A81B229E0A08DE18D401A81B2A5
:101F1000E08D0028A8D00029A6D020680C3050E819
:101F2000002F22F4907240E80026002EF5D12068A0
:101F3000143050E8002F22F0010240E80026002E65
:101F4000F5D184F83E30256320680C3050E8002F2E
:101F500022F0100240E80023002BF5D12046FFF7C5
:101F6000D2FEF8BDFFE705062BD5150629D594F856
:101F70003D002128F5D1A068B0F5805F01D120692E
:101F8000B0B1206A411C2162216800784860E08C71
:101F9000401E0004000CE084E3D12068C16821F0F9
:101FA0008001C1602068C16841F04001C160D8E78C
:101FB000206A0088C0F308004860206A801C206204
:101FC000E5E74006CDD55006CBD5CA68204622F0BD
:101FD0004002CA6084F83D3000F057F9C1E70000C4
:101FE000132C000870B5040004D094F83D000025BF
:101FF00010B106E0012070BD84F83C50204600F08E
:1020000023F8242084F83D002068C16821F40051A1
:10201000C160204600F00EFF2068016921F4904164
:1020200001612068416921F02A0141612068C1688D
:1020300041F40051C1602564202084F83D0084F8FB
:102040003E00002070BD00002DE9F04F87B006462D
:1020500014216846FEF7F4F8DFF830810221D6F843
:1020600000C000244A48032207254A4B8F064FF43C
:1020700080694FF4807A4FF4003BC4453ED1DFF8CD
:1020800010C10CF1140CDCF8008048F01008CCF8FA
:102090000080DCF800C00CF0100CCDF814C0D0F8B3
:1020A00000C04CF0010CC0F800C0006800F0010056
:1020B000059050028DE81300CDE9032569461846C6
:1020C000FEF75EFF354D344805F118082860C5E974
:1020D0000174C5E903496C6188E8100C28466C62FC
:1020E000FEF79AFE08B1FEF7D0FCB563002201218D
:1020F0002520AE63FFF7B8F8252042E0DFF8A08086
:10210000C44540D1DFF888C00CF1100CDCF8008029
:1021100048F40038CCF80080DCF800C00CF4003C37
:10212000CDF814C0D0F800C04CF0010CC0F800C0CD
:10213000006800F0010005900C208DE81300CDE947
:10214000032569461846FEF71BFF144D15486035F8
:1021500005F118082860C5E90174C5E903496C61F7
:1021600088E8100C28466C62FEF756FE08B1FEF7B0
:102170008CFCB563002202212620AE63FFF774F8C1
:102180002620FFF763F807B0BDE8F08F001001408C
:10219000303802400000024040640240A422002087
:1021A000004400408860024090F83E30202B0ED161
:1021B00059B152B190F83C30012B08D0012380F87E
:1021C0003C300023036300F0BBBE012070470220B7
:1021D00070477047704700002DE9F843044690F8B7
:1021E0003D001F4616460D4620284CD1C5B1BEB154
:1021F00094F83C00012846D0012084F83C004FF0C0
:102200000008C4F84080212084F83D00FEF7BEFF9E
:10221000A6848146E684A068B0F5805F03D004E020
:102220000120BDE8F883206928B12E465FF0000543
:1022300084F83C800EE00026FAE78021204600F07A
:10224000C9FEA0B9AEB116F8010B21684860E08C58
:10225000401EE084E08C4B464FF0000200970028BF
:10226000EBD14FF04001204600F0B4FE30B1032026
:10227000D7E735F8020BC0F30800E6E7202084F822
:102280003D000020CDE70220CBE77047FEE70000CD
:1022900070B50F4C012208212046FEF771FF0D4D4D
:1022A000012202212846FEF76BFF00F04DF80022C4
:1022B00008212046FEF764FF00F046F800220221C4
:1022C0002846FEF75DFFBDE8704000F03DB8000015
:1022D000000802400000024010B50A4C002208210C
:1022E0002046FEF74DFF012202210748FEF748FF76
:1022F00000F02AF820460122BDE810400821FEF730
:102300003FBF0000000802400000024010B501225B
:1023100008210B48FEF734FF00F016F8094C0122A3
:1023200002212046FEF72CFF00F00EF800220221C9
:102330002046FEF725FFBDE8104000F005B800007C
:1023400000080240000002400A20401EC0B2FCD239
:1023500070470000114808B5016841F48001016030
:10236000016801F480010091016841F400110160ED
:102370000068002200F40010009011461020FEF7C3
:1023800073FF1020FEF762FF002211463A20FEF78D
:102390006BFFBDE808403A20FEF758BF30380240D6
:1023A0002DE9F04186B014216846FDF749FF2A481F
:1023B0000025016841F004010160016801F0040199
:1023C0000591016841F020010160016801F02001E0
:1023D0000591016841F080010160016801F0800110
:1023E0000591016841F00101016000681B4F00F098
:1023F00001004FF4C0640590012221463846FEF7E3
:10240000BFFE174E012208213046FEF7B9FEDFF865
:102410005480012202214046FEF7B2FE00940124BE
:10242000CDE90145694638460395FEF7A9FD082028
:10243000CDE90004022569463046CDE90245FEF7A4
:102440009FFDCDE9005469464046CDE90245FEF7BF
:1024500097FD06B0BDE8F08130380240001402401C
:10246000000802400000024010B586B00024164863
:10247000009401940294039404944FF080410594D5
:1024800001605321C0E901141049C0E903148461BB
:10249000FFF71AFA08B1FEF7F8FA4FF480500090EF
:1024A00069460948FFF79AFA08B1FEF7EEFA049474
:1024B00004A905480594FFF7BFF9002801D0FEF7ED
:1024C000E4FA06B010BD0000D42100201FA10700CF
:1024D0000C4810B50A4901604FF4E1314160002118
:1024E00081600C22C160C0E904128161C161FFF703
:1024F00079FD002803D0BDE81040FEF7C6BA10BD34
:10250000001001401C2200200C4810B50A4901604F
:102510004FF4E1314160002181600C22C160C0E9CB
:1025200004128161C161FFF75DFD002803D0BDE8A1
:102530001040FEF7AABA10BD0044004060220020FF
:10254000FEE7FEE730B40021084B0A465FF00000CA
:1025500003EBC004401CC0B262548028F8D3491C6D
:10256000C9B20829F2D330BC00F0B0B8540500203D
:1025700030B1012807D100215FF0A70000F06AB94F
:102580000021A620FAE7704710B558B1012810D1F4
:102590000021C02000F05EF90021A020BDE810401D
:1025A00000F058B90021C82000F054F90021A12002
:1025B000F4E710BD30B5CC0801F0070301259D40BC
:1025C000EBB2064D05EBC005C808285C0AB11843FC
:1025D00002E063EA0000C043285530BD54050020E6
:1025E00010B50021AE2000F035F90021084600F0BA
:1025F00031F90021102000F02DF90021402000F0D9
:1026000029F90021812000F025F90021CF2000F0D8
:1026100021F90021A12000F01DF90021C82000F0BF
:1026200019F90021A62000F015F90021A82000F0DA
:1026300011F900213F2000F00DF90021D32000F016
:1026400009F90021084600F005F90021D52000F025
:1026500001F90021802000F0FDF80021D92000F0D0
:10266000F9F80021F12000F0F5F80021DA2000F05F
:10267000F1F80021122000F0EDF80021DB2000F03D
:10268000E9F80021402000F0E5F80021202000F0CA
:10269000E1F80021022000F0DDF800218D2000F09B
:1026A000D9F80021142000F0D5F80021A42000F072
:1026B000D1F80021A62000F0CDF8FFF743FF00215C
:1026C000BDE81040AF2000F0C5B8000070B5184E4E
:1026D000002400BF04F1B000C0B2002100F0BAF83D
:1026E0000021084600F0B6F80021102000F0B2F8F2
:1026F000FFF7CEFD782000F06FF9FFF707FE4020CE
:1027000000F06AF9FFF702FE5FF0000506EBC50076
:10271000005D00F061F9FFF7F9FD6D1CEDB2802D51
:10272000F4D3FFF7D9FD641CE4B2082CD2D370BDFA
:10273000540500202DE9FC4F1C460E4682468B4670
:102740000190082B0ED0600700D0012000EBD400D0
:10275000610810FB01F0C0B28146203AD0B200906F
:1027600000204AE00620F7E7082C12D00C2C17D0E6
:10277000102C1AD0182C43D10098234900EBC0002C
:1027800001EB8001002711F80850E80712D00B9ADE
:1027900013E000981D4900EB400001EB4001F1E718
:1027A00000981B4900EB4000EAE71A49009801EB4A
:1027B0000011E7E70B9828B3002231465046FFF797
:1027C000F9FE761C7F1C6D08FFB2F6B2082FDCD331
:1027D0000AF1010000F0FF0A082C0AD00199AAEBC7
:1027E0000100B0EB540F04D10BF108008A4600F051
:1027F000FF0B08F101005E46C0B280464845B3D3E6
:10280000BDE8FC8F0122D8E74F610008C3540008DF
:10281000EB5600085F5B00082DE9F8411E4615469F
:1028200088460446079F0BE0334641462046009702
:10283000FFF780FF082E0AD004EB5600C4B26D1CCF
:102840002A78A2F120005E28EED9BDE8F881A41D07
:10285000E4B2F4E770B50C460546FFF719FD7820A1
:1028600000F0BAF8FFF752FD0CB1402000E0002064
:1028700000F0B2F8FFF74AFD284600F0ADF8FFF788
:1028800045FDBDE87040FFF727BD704770B50546B0
:1028900011A11448FDF7EBFC04462221FDF7F9FCD9
:1028A000001B82B221461048FDF704FD012D10D017
:1028B0000EA10D48FDF7CFFC0B4802F0EFFD1348C9
:1028C000094A0089BDE87040C0F580711044FDF7E9
:1028D000B7BC0FA1EDE70000726571756573745F99
:1028E00069643D00D411002034030020222C3137CC
:1028F0002C227B5C22726573756C745F636F6465F8
:102900005C223A317D220D0A000000000C000020FC
:10291000222C31372C227B5C22726573756C745FBC
:10292000636F64655C223A307D220D0A000000006E
:1029300070B5054611A11448FDF799FC0446222103
:10294000FDF7A7FC001B82B221461048FDF7B2FC40
:10295000012D10D00EA10D48FDF77DFC0B4802F0B3
:102960009DFD1348094A4089BDE87040C0F580715B
:102970001044FDF765BC0FA1EDE7000072657175AD
:102980006573745F69643D00D41100203404002035
:10299000222C31372C227B5C22726573756C745F3C
:1029A000636F64655C223A317D220D0A00000000ED
:1029B0000C000020222C31372C227B5C22726573A4
:1029C000756C745F636F64655C223A307D220D0A1A
:1029D00000000000704700002DE9F041114F124E39
:1029E00005460024280601D5012200E00022082126
:1029F0003846FEF7C5FBFFF7A7FC0122022130464F
:102A0000FEF7BEFBFFF7A0FC002202213046FEF7D6
:102A1000B7FB6806641C050EE4B2082CE2D3BDE8DF
:102A2000F08100000008024000000240FEF7B4BB45
:102A300030B593B030216846FDF702FC14210CA894
:102A4000FDF7FEFB1D480025016841F08051016043
:102A5000006800F0805011901948016841F48041ED
:102A600001600068022400F4804011900120009071
:102A7000000401908001CDE9064008AA0420A821A5
:102A800082E813000B906846FEF70AFD08B172B6A3
:102A9000FEE70CA90F2081E831004FF4A0500F9001
:102AA0004FF48050109005210CA8FEF70FFC002871
:102AB00001D072B6FEE713B030BD000040380240CE
:102AC000007000400248016841F4700101607047E5
:102AD00088ED00E00148FEF7F0BF0000D42100209F
:102AE000F0B50268254C264D264E274F274B4FF058
:102AF000804CA04209D0604507D0A84205D0B04222
:102B000003D0B84201D0984204D122F0700E4A6836
:102B100042EA0E02A0421BD0604519D0A84217D04D
:102B2000B04215D0B84213D0984211D0184DA842E7
:102B30000ED0184DA8420BD0174DA84208D0174D03
:102B4000A84205D0164DA84202D0164DA84203D186
:102B500022F44075CA682A434D6922F080022A4354
:102B600002608A68C2620A688262A04201D098420A
:102B700001D10969016301214161F0BD00000140FB
:102B80000004004000080040000C00400004014028
:102B9000004001400044014000480140001800404E
:102BA000001C00400020004010B5846842EA032267
:102BB00024F47F440A432243826010BD826822F0DD
:102BC00070020A4342F007018160704710B5036A42
:102BD000046A24F001040462846924F0F00444EAE5
:102BE000021423F00A020A438461026210BD10B588
:102BF000036A23F0100303628369046A23F47043B9
:102C000043EA023224F0A00343EA01118261016227
:102C100010BD10B5806B0021C185C184FFF7ACF8F1
:102C200010BD70B5846B2068406994F83D10C0F306
:102C3000C0100025212904D118B1E584204600F0F8
:102C40008AF82068406994F83E10C0F38010222969
:102C500004D118B1E585204600F056F8206C40F00C
:102C6000100020642046FFF787F870BD10B50146BC
:102C7000806B09680968C9052FD40021C1850168E6
:102C80000C3151E8002F22F4807241E80023002B20
:102C9000F5D10168143151E8002F22F0010241E81A
:102CA0000023002BF5D10168143151E8002F22F0E8
:102CB000400241E80023002BF5D1202180F83E108E
:102CC000016B012909D101680C3151E8002F22F074
:102CD000100241E80023002BF5D1016B012902D03D
:102CE000FFF777FA10BD818DFFF70DF810BD10B515
:102CF000806B016B012902D0FFF76CFA10BD818D4A
:102D00004908FFF700F810BD01680C3151E8002FA9
:102D100022F4907241E80023002BF5D101681431B0
:102D200051E8002F22F0010241E80023002BF5D1E9
:102D3000016B012909D101680C3151E8002F22F003
:102D4000100241E80023002BF5D1202180F83E102D
:102D500000210163704701680C3151E8002F22F017
:102D6000C00241E80023002BF5D1202180F83D105E
:102D7000704708B590F83E10222901D0022008BD06
:102D800082684FF480539A4201D1016921B1816A6E
:102D90009A421BD04AB10AE00268816A5268C2F3C3
:102DA00008020A80816A891C08E0026972B102681F
:102DB000526802F07F020A70816A491C8162C18DEB
:102DC000491E0904090CC18503D019E00268526844
:102DD000F1E70168CA6822F02002CA600168CA6887
:102DE00022F48072CA6001684A6922F001024A61D5
:102DF000202180F83E10016B012903D0FFF7E9F98B
:102E0000002008BD0021016301680C3151E8002F4A
:102E100022F0100241E80023002BF5D101680A6876
:102E2000D20602D50A6849680091818DFEF76BFFD2
:102E3000E6E7000070B5044600680169E26821F425
:102E40004051114301612169A068E2690843616949
:102E5000114308432168CA6849F20C639A4302434C
:102E6000CA6020684169A26921F44071114341613F
:102E700031492068884202D03049884202D1FEF7A9
:102E8000CFFA01E0FEF7BCFAE269002319216425BC
:102E90003226B2F5004F626828D0A0FB0101930FE3
:102EA0009200FDF78FF90146B0FBF5F06FF01802C4
:102EB000504301EB800006EB0010B0FBF5F000F092
:102EC000F002B1FBF5F002EB0012B1FBF5F06FF090
:102ED0001803584301EB800006EB0010B0FBF5F03F
:102EE00000F00F0021681044886070BDA0FB010154
:102EF00092185B41FDF766F90146B0FBF5F002015F
:102F0000B1FBF5F06FF01803584301EB800006EBBE
:102F1000C000B0FBF5F000F0F80002EB4002B1FB9E
:102F2000F5F0584301EB800006EBC000B0FBF5F074
:102F300000F00700D6E70000001001400014014037
:102F400038B5816282850025134604460564222037
:102F500084F83E00A26B1C48D063A26B1B4810642F
:102F6000A26B1B48D064A06B0A4605652168A06B64
:102F7000091DFDF7BBFF206801684068009084F8D8
:102F80003C50206948B120680C3050E8001F41F4E3
:102F9000807140E80012002AF5D12068143050E812
:102FA000001F41F0010140E80012002AF5D120681D
:102FB000143050E8001F41F0400140E80012002AA0
:102FC000F5D1002038BD00006D2C0008EF2C000862
:102FD000232C00082DE9F041984617460E4604467A
:102FE000069D27E0681C25D02DB1FEF7CFF8A0EB99
:102FF0000800A8421ED920680C3050E8001F21F4B8
:10300000D07140E80012002AF5D12068143050E851
:10301000001F21F0010140E80012002AF5D1202014
:1030200084F83D0084F83E00002084F83C00032032
:10303000BDE8F0812068006836EA000004D0002076
:10304000B842CFD00020F3E70120F9E710B50448DB
:10305000FEF794FEBDE81040014800F03FB80000C4
:103060001C22002010B50448FEF788FEBDE8104081
:10307000014800F033B800006022002010B500685D
:10308000114988421FD11148FEF73EFE10480068E2
:103090004068104CC0F50060A081E18908440E49E9
:1030A000E08101F50060FDF7D6F801206070A1898C
:1030B0000948FDF7C5F8BDE810404FF40062064925
:1030C0000248FFF771B810BD001001401C2200201B
:1030D000A42200200C000020D409002038B50446AA
:1030E0000068114988420BD1104800680168C94343
:1030F000C90605D40168406800900C48FFF7BEFF80
:103100000B49206888420DD10A4800680168C9430C
:10311000C90607D4016840680090BDE838400548FA
:10312000FFF7ACBF38BD0000001001401C2200209A
:103130000044004060220020FEE700000FB4054B71
:1031400010B503A9044A029801F016F810BC5DF806
:1031500014FB0000F1490008440500200FB4084B9F
:1031600010B504A902AA039801F006F8044602A9C2
:10317000002001F084FB204610BC5DF814FB000029
:103180007F48000803B401984100009850EAC1202C
:1031900018BF04204A0D18BF40F0010040F2FF7232
:1031A000B2EB515F08BF40F00200012808BF0520C4
:1031B00002B070470907090E002804DB00F1E02087
:1031C00080F80014704700F00F0000F1E02080F854
:1031D000141D7047000000002DE9F04D2DED040B8B
:1031E0002DED0E8B96B0DDE92550279CDDF890A0E3
:1031F00025F0004624F00048BAF1000F14BF012169
:10320000002101EB4502FC4953184A1093422AD38E
:10321000002814BF0123002303EB44030B44F749A8
:103220008B4220D358EA00019FEDF59B76D0DFF862
:10323000D8B35D4503D1BAF1000F05D188E0BAF1EA
:10324000000F08BF002100D0012101EB450111F55D
:10325000001F08D8002814BF0121002101EB440100
:1032600011F5001F0BD99DED261B9DED240B16B00B
:10327000BDEC0E8B04B0BDE8F04D00F069BE002738
:10328000002DBCBFE149884521DAE1498845A8BF46
:1032900002271CDAC3451ADCDE4901EB2851142948
:1032A00008DDC1F1340220FA02F101FA02F2824291
:1032B0000DD108E058B9C1F1140228FA02F101FA5F
:1032C00002F2424503D101F00101C1F1020756EAC1
:1032D0000A0124D1002C22DA002D18BF022F01D0C0
:1032E000012F0AD0022000F07FFE16B0BDEC0E8B3D
:1032F00004B0BDE8F04D00F013BE022000F074FEF3
:1033000000F00EFE51EC100B81F0004141EC100B6F
:1033100016B0BDEC0E8B04B0BDE8F08D18E09FED4B
:10332000BEAB9FEDBF8B002871D1B848804522D13C
:1033300005F1804010F5801008BFBAF1000F07D0EA
:10334000B3450ADC002CA8BF9DED260BE0DA0DE0AA
:10335000B0EE490AF0EE690ADAE7002C06DA9DEDD4
:10336000260B51EC100B81F000416FE0AE48784421
:1033700090ED000BCCE7D8454DD1002C48DA2EB1AA
:1033800086423AD1BAF1000F42D126E0BAF1000FDD
:1033900013D0022000F028FE00F0F6FD8DED020BA8
:1033A0009DED240B8DED000B10EE900A039961F357
:1033B0001E0003909DED020BAAE78DED02AB9DED83
:1033C000240B1AEE901A10EE900A8DED000B61F3AB
:1033D0001E0003909DED020B9AE78DED028B9DED93
:1033E000240B18EE901A10EE900A8DED000B61F38D
:1033F0001E0003909DED020B8AE709DA9DED240B78
:1034000051EC190B53EC102BFDF786F91EE020E070
:103410009DED240B7CE786421BDAB4F1804F0DD082
:10342000A4F10050B0F1FF5013D1002D11DB9DED40
:10343000240B51EC100B01F0F9FF07E09DED240B7C
:1034400053EC102B51EC100B00F0C2BC41EC100BF4
:103450005EE79DED240B51EC100B01F0BCFABAF1C4
:10346000000FCDE90E0142D19FED710B46B3A6F1DD
:10347000E040B0F17F600CD05E4538D1002D00DA1D
:10348000A7B3022F0CBF01204FF0FF30FDF757F814
:10349000DCE7002D01DD002C0DDA002D01DD002C14
:1034A0001FDB002D16DA002C14DB012F08BF9FED67
:1034B000620B3FF42DAFB0EE4A0AF0EE6A0A27E73E
:1034C000022F18BF002D0CD0012F0AD1002DFFF6BE
:1034D0001FAF06E0002DB8BF002C08DA012F3FF423
:1034E00017AFB0EE480AF0EE680A11E71BE00120C2
:1034F00000EBE57050EA070115D0791EB0EE498A5D
:10350000F0EE698A084308BF9FED4D8B4E480025B9
:10351000804570DD4D494E48884514DDB0420DDBD5
:10352000002C19DB2FE0012000F05EFD16B0BDEC91
:103530000E8B04B0BDE8F04D00F016BDB34502DCC3
:10354000002C09DC1FE0864202DA002C1BDA03E0C3
:103550005E452BDD002C16DD022000F045FD00F05D
:1035600013FD8DED020B53EC1A2B51EC180BFCF7ED
:1035700074FFCDE900010399019861F31E000390E7
:103580009DED020BC4E6022000F02EFD00F00CFDC4
:1035900010EE901A18EE900A8DED020B8DED008B57
:1035A00061F31E0003909DED020BB1E69DED0E0B45
:1035B00053EC192B51EC100BFCF749FF9FED260B38
:1035C000CDE9080153EC102B9DED080B51EC100BCD
:1035D000FCF743FF9FED221B53EC112BFCF73AFF46
:1035E0009DED081B53EC112BFCF737FF9FED1E1BC5
:1035F00053EC112B3CE08CE0FFFF1F00FFFF0F009E
:10360000000000000000F03F0000F03F0000F07FED
:103610000000404301FCFFFF000000000000F07FBD
:1036200000000000000000000E400000000000004C
:103630000000000000000080000000000000F0FF1B
:10364000000000000000F0BF0000E0410000F04377
:10365000FFFFEF3F00000000000000000000D03F2F
:10366000555555555555D53F000000000000E03F29
:10367000FCF7F0FE9DED080B41EC1A0B53EC102B00
:1036800051EC100BFCF7E9FE53EC1A2BFCF7E5FEAE
:1036900041EC1A0B9FEDFE0B53EC102B9DED080B2C
:1036A00051EC100BFCF7D9FE41EC1B0B9FEDFA0B14
:1036B00051EC1A0B53EC102BFCF7CFFE41EC1A0B1C
:1036C0009FEDF70B53EC102B9DED080B51EC100BFD
:1036D000FCF7C3FE53EC1A2BFCF7B9FE41EC1A0BB6
:1036E00051EC1B0B53EC1A2BFCF710FE0690CDE9A6
:1036F00006519DED060B53EC1B2B51EC100BFCF708
:10370000A6FE53EC1A2BFCF7A5FE41EC100B00F0C3
:10371000A1B90020B6F5801F0EDA9FEDE30B53EC44
:10372000102B9DED0E0B51EC100BFCF796FECDE926
:103730000E016FF034000E4600EB2650A0F2FF376A
:10374000C6F31300DA4940F07F6646F040568842DF
:10375000D8BF002408DDD7498142C8BF012403DC5B
:103760000024A6F580167F1CD348784400EBC400E3
:103770000F9690ED00CB9DED0E0B53EC1C2B51ECF6
:10378000100BFCF764FE9DED0E0B41EC1B0B53EC94
:103790001C2B51EC100BFCF7B9FD41EC100B51EC5C
:1037A000190B53EC102BFCF7B7FF41EC1D0B51EC40
:1037B0001B0B53EC1D2BFCF750FE41EC1A0BBF48C2
:1037C0008DED10AB7844109590ED000B4FF000504C
:1037D00040EA660000EB84408DED080B00F5002008
:1037E00009909DED080B53EC1C2B51EC100BFCF7D2
:1037F0002EFE9DED0E1B53EC112BFCF72BFE41EC26
:10380000100B53EC102B9DED100B51EC100BFCF733
:1038100024FE9DED080B41EC1C0B53EC102B9DED91
:10382000100B51EC100BFCF718FE53EC1B2BFCF7A4
:1038300011FE53EC1C2BFCF70AFE53EC1D2BFCF77E
:103840000CFE41EC1C0B53EC1A2B51EC1A0BFCF741
:1038500004FE41EC1B0B9A480621B0EE4B0AF0EE39
:103860006B0A784400F0E0FAB0EE401AF0EE601A0D
:10387000B0EE41DAF0EE61DA53EC1B2B51EC1B0B8E
:10388000FCF7EBFD53EC1D2BFCF7E7FD9DED100B5A
:1038900041EC1B0B53EC1A2B51EC100BFCF736FDD3
:1038A00053EC1C2BFCF7D9FD53EC1B2BFCF72EFD26
:1038B0009DED100B41EC1B0B53EC102B51EC100B3E
:1038C000FCF7CBFD41EC1D0B9FED7FEB53EC1E2B6A
:1038D000FCF71CFD53EC1B2BFCF718FD0890CDE901
:1038E00008519DED080B53EC1E2B51EC100BFCF70F
:1038F000AEFD53EC1D2BFCF7AAFD53EC1B2BFCF784
:10390000A9FD9DED080B41EC1D0B53EC102B9DED1B
:10391000100B51EC100BFCF7A0FD41EC1B0B53EC12
:103920001A2B51EC1D0BFCF798FD9DED080B41EC9B
:103930001A0B53EC102B51EC1C0BFCF78EFD53ECC7
:103940001A2BFCF7E3FC41EC1A0B51EC1B0B53EC6C
:103950001A2BFCF7DBFC0C90CDE90C519DED0C0B08
:1039600053EC1B2B51EC100BFCF771FD53EC1A2B95
:10397000FCF770FD41EC1B0B9FED550B53EC102B2E
:103980009DED0C0B51EC100BFCF767FD41EC1A0B95
:103990009FED510B51EC1B0B53EC102BFCF75DFD15
:1039A00041EC1B0B9FED4E0B53EC102B9DED0C0BC4
:1039B00051EC100BFCF751FD53EC1B2BFCF7A6FC54
:1039C00041EC100B4848784400EBC40090ED001B1C
:1039D00051EC100B53EC112BFCF798FC41EC1B0B3A
:1039E0003846FCF7ACFDCDE9080153EC1B2B51EC3C
:1039F0001A0BFCF78BFC41EC100B3C48784400EBB5
:103A0000C40090ED00CB51EC100B53EC1C2BFCF7D9
:103A10007DFC9DED081B53EC112BFCF777FC069009
:103A2000CDE906519DED080B53EC102B9DED060BD7
:103A300051EC100BFCF70BFD53EC1C2BFCF707FDB6
:103A400053EC1A2BFCF703FD53EC1B2BFCF702FD88
:103A500041EC100B9DED261B53EC102B8DED001B44
:103A600000959DED260B51EC100BFCF7F6FC9DED3F
:103A7000000B41EC1A0B53EC102B9DED260B51EC77
:103A8000100BFCF7E4FC9DED061B53EC112B2FE013
:103A9000000000604715F73FFE822B654715F73F92
:103AA00044DF5DF80BAE543E0000000000004043D0
:103AB0008E9803007AB60B008A3B0000B83B0000EA
:103AC000C23A0000000000000000000000000840B2
:103AD000000000E009C7EE3FFD033ADC09C7EE3FF6
:103AE000F5015B14E02F3EBE4E390000083900009E
:103AF000FCF7B3FC53EC1A2BFCF708FC9DED060B0E
:103B000041EC1A0B53EC102B9DED000B51EC100BFC
:103B1000FCF7A3FCCDE90C019DED0C0B51EC1A0B4D
:103B200053EC102BFCF7F2FBCDE902010C46AA493D
:103B30008C422FDB611A084318D19DED0C0B53EC1E
:103B4000102B9DED020B51EC100BFCF780FC41ECAF
:103B50001B0B9FEDA30B51EC1A0B53EC102BFCF736
:103B6000D5FB53EC1B2BFCF71BFD2DD2022000F0E4
:103B70003BFA00F009FA10EE901A18EE900A8DED5B
:103B8000020B8DED008B61F31E0003909DED020B87
:103B9000FFF7BEBB944A24F00041914214D39349ED
:103BA000214408437FF4EFAC9DED0C0B53EC102B3C
:103BB0009DED020B51EC100BFCF749FC53EC1A2B5A
:103BC000FCF7EEFC7FF6DFAC24F000408849894A20
:103BD000002601EB205182422BDA481C4FF4801161
:103BE00021FA00F02044844AC0F30A517A44A1F239
:103BF000FF3192ED000B814A8DED080BCA4020EA9F
:103C00000202C0F3130040F48010C1F1140120FA45
:103C100001F60992002CB8BF76429DED080B53ECDB
:103C2000102B9DED0C0B51EC100BFCF710FCCDE9AB
:103C30000C019DED0C0B51EC1A0B53EC102BFCF707
:103C400065FB9FED6F0B0890CDE9085153EC102BED
:103C50009DED080B51EC100BFCF7FFFB41EC1B0B2F
:103C60009FED690B53EC102B9DED080B51EC100BE5
:103C7000FCF7F3FB9DED0C0B41EC1C0B53EC102BF4
:103C80009DED080B51EC100BFCF7E1FB53EC1A2BEC
:103C9000FCF7E0FB9FED5E1B53EC112BFCF7DDFB0B
:103CA00053EC1C2BFCF732FB41EC1A0B51EC1B0BB9
:103CB00053EC1A2BFCF72AFBCDE902019DED020B18
:103CC00053EC1B2B51EC100BFCF7C1FB53EC1A2BE4
:103CD000FCF7C0FB9DED020B41EC1A0B53EC102BD3
:103CE00051EC100BFCF7B9FBCDE908014A489DEDFA
:103CF000080B0521784400F097F89DED081B51EC66
:103D0000100B53EC112BFCF7A8FB9DED021B53ECA1
:103D1000112BFCF79FFBCDE906019DED020B53EC47
:103D20001A2B51EC100BFCF798FB53EC1A2BFCF7F9
:103D3000EDFA9FED3B0B41EC1A0B53EC102B9DED74
:103D4000060B51EC100BFCF782FB9DED060B41ECD2
:103D50001B0B53EC102B9DED020B51EC100BFCF7E1
:103D60007CFB53EC1B2BFCF7D7FC53EC1A2BFCF71A
:103D70006EFB9DED021B53EC112BFCF768FB53EC23
:103D8000192BFCF767FBCDE9020101EB0650011589
:103D90000029C8BF039015DC9DED020B324651ECA3
:103DA000100BFCF728FDFFF7EDF9042808BF00F021
:103DB000FBF832469DED020B51EC100BFCF71BFD9E
:103DC000CDE902019DED020B51EC180B53EC102BC9
:103DD000FCF743FBFFF73ABB0000904000000000F7
:103DE000FE822B654715973C00CC904000346F3F16
:103DF00001FCFFFF0000E03F90370000FFFF0F00D5
:103E000000000000432EE63F396CA80C615C20BE28
:103E1000EF39FAFE422EE63F603600000000000057
:103E2000000000000000004070B504462DED028B3C
:103E30004D1E00EBC500B0EE408AF0EE608A90EDBA
:103E4000000B35F0060017D053EC182B51EC100B7B
:103E5000FCF703FB41EC100B6D1E04EBC50090ED6D
:103E6000001B51EC100B53EC112BFCF74FFA41ECFB
:103E7000100B35F00600E7D1022D36D0042D1CD0F2
:103E8000062D1CBFBDEC028B70BD53EC182B51EC02
:103E9000100BFCF7E2FA94ED0A1B53EC112BFCF724
:103EA00035FA53EC182BFCF7D8FA94ED081B53ECB9
:103EB000112BFCF72BFA41EC100B53EC182B51ECA7
:103EC000100BFCF7CAFA94ED061B53EC112BFCF710
:103ED0001DFA53EC182BFCF7C0FA94ED040B53ECCD
:103EE000102BFCF713FA41EC100B53EC182B51EC90
:103EF000100BFCF7B2FA94ED021B53EC112BFCF7FC
:103F000005FA53EC182BFCF7A8FA94ED001B53ECC0
:103F1000112BFCF7FBF9BDEC028B41EC100B70BDD3
:103F20009FED070B10B553EC102B9FED070B51ECD9
:103F3000100BFCF7F1FB41EC100B10BD0000000072
:103F40000000000000000000000000000000F03F42
:103F500010B553EC112B51EC100BFCF7D7F941ECD9
:103F6000100B10BD000000009FED050B10B553ECC9
:103F7000102B51EC100BFCF7CFFB41EC100B10BDDC
:103F800000000000000000009FED050B10B553EC91
:103F9000102B51EC100BFCF760FA41EC100B10BD2C
:103FA00000000000000000709FED050B10B553EC01
:103FB000102B51EC100BFCF750FA41EC100B10BD1C
:103FC000000000000000001002E008C8121F08C135
:103FD000002AFAD170477047002001E001C1121F8A
:103FE000002AFBD1704700000149086070470000BB
:103FF000500500202DE9FF5F82B00021DDE904308B
:10400000020DDDF840B0034318D044F61050A2F280
:10401000FF3242431514119801281FD0A5EB0B0065
:10402000401C5FEA000A4FF000064E4FDFF838915F
:10403000B046504615D5CAF1000413E0119801248A
:104040004AA3012801D16FEA0B010298119AC0E935
:104050000031C0E9024206B0BDE8F09FCBF100009C
:10406000DFE704460021404A491842EB0450CDE9FD
:10407000001012E0E00707D032463B464046494672
:10408000FCF7EBF98046894632463B461046194616
:10409000FCF7E3F906460F466410002CEAD1DDE98F
:1040A0000401DDE90023BAF1000F06DAFCF7D5F9C7
:1040B00042464B46FCF7D1F905E0FCF72DFB4246A2
:1040C0004B46FCF729FB04460E460022284BFCF722
:1040D00067FA03D84FF0FF30014607E00022254B76
:1040E00020463146FCF712F9FCF79CFB102409E04E
:1040F000002C0ADB0A220023FCF764F8039B303211
:104100001A55641E50EA0102F2D1641C039AC4F1EC
:1041100011031444119A012A03D0012208430DD13E
:104120000AE0084304D000204FF0110B119072E711
:10413000A3EB0B056D1E0DE05B4504DD4FF00002A7
:1041400005F1010504E003DA4FF00002A5F10105D5
:10415000002AECD002981199C0E90231C0E900456B
:1041600079E70000000014400000F03F300000003C
:104170000000F0430000E03F2DE9FF4F95B09A4664
:10418000884606460025EEE1252877D100242746FB
:10419000F94A0121039400E0044316F8013F203B53
:1041A00001FA03F01042F7D130782A2811D06FF0CD
:1041B0002F033078A0F13002092A16D8039A44F070
:1041C000020402EB820203EB42021044761C0390CD
:1041D000EFE758F8042B0392002A03DA504244F424
:1041E0000054039044F00204761C30782E2816D137
:1041F00016F8010F44F004042A280DD06FF02F02A6
:104200003078A0F13003092B09D807EB870302EBC4
:104210004303C718761CF3E758F8047B761C307804
:104220006C280FD006DC4C2817D068280DD06A28DF
:1042300014D104E0742810D07A280FD10DE044F492
:1042400000140AE044F4801401E044F4401472784D
:10425000824202D104F58014761C761C30786628E0
:104260000BD013DC582877D009DC002875D04528FE
:10427000F6D04628F4D047281AD193E118E06328F5
:1042800035D0642879D0652812D18BE1702873D09D
:1042900008DC6728F1D069286FD06E280DD06F2810
:1042A00006D1ACE073282CD0752874D0782853D070
:1042B0005246179990476D1C54E1C4F302500228EE
:1042C00009D003280DD0D8F8001004280DD00D60B7
:1042D00008F1040846E1D8F80010EA17C1E90052D5
:1042E000F6E7D8F800100D80F2E70D70F0E718F847
:1042F000041B8DF8001000208DF80100EB46012012
:1043000003E058F804BB4FF0FF3061074FF00001A5
:1043100002D40DE009F101018946B9420FDA814565
:10432000F8DB1BF809100029F4D108E009F10101BC
:1043300089468142FADB1BF809100029F6D103985F
:104340005346A0EB090721463846179A00F080FA39
:10435000284400EB090507E044E008E10DE01BF804
:10436000010B524617999047B9F10109F7D253460C
:1043700021463846179AF2E039E00A21C4F3025286
:104380004FF0000B0091022A06D058F8040BC11719
:10439000032A09D00AE023E008F1070020F0070211
:1043A000F2E80201904605E000B2C117042A01D1EB
:1043B00040B2C117002906DA0A460021404261EBEB
:1043C00002012D2202E0220504D52B228DF80420C3
:1043D000012203E0E20701D02022F7E7914657E0EF
:1043E0000A2100E010214FF0000B00910BE010219A
:1043F0004FF0000B44F004040827009103E008206C
:104400004FF0000B0090C4F30252022A05D058F876
:10441000040B0021032A08D008E008F1070020F06F
:104420000702F2E80201904603E080B2042A00D1BC
:10443000C0B24FF0000922072AD53278702A07D07F
:10444000DDF800C08CF0100C5CEA0B0C05D00EE01F
:1044500040228DF80420012208E050EA010306D032
:1044600030238DF804308DF8052002229146009B00
:1044700083F0080353EA0B030AD150EA010201D189
:10448000620705D530228DF804204FF001097F1E08
:104490003278582A04D039A20C920CAA02920BE06E
:1044A0003BA2F9E75B46009AFBF78CFE0C9B9B5CFA
:1044B000029A521E0292137050EA0102F2D102983F
:1044C00004A9081A00F1200B600702D524F48034F7
:1044D00000E001275F4502DDA7EB0B0000E00020B4
:1044E00000EB0B01009003984944401A0390E0034D
:1044F00006D453462146179A039800F0A9F90544BB
:10450000002706E001A85246C05D179990476D1C30
:104510007F1C4F45F6DBE0030CD553462146179A26
:10452000039800F095F9054404E0302052461799AD
:1045300090476D1C0099481E00900029F5DC08E0AA
:104540000298029952460078491C029117999047A7
:104550006D1CBBF10001ABF1010BF1DC5BE100F084
:1045600065F90544761C307800287FF40DAE19B04B
:104570002846BDE8F08F00000928010030313233B1
:10458000343536373839616263646566000000008F
:104590003031323334353637383941424344454679
:1045A00000000000600700D4062708F1070020F093
:1045B0000700F0E80223804603F0004C5FEA0C009D
:1045C00001D097A009E0200501D596A005E0E007FD
:1045D00001D095A001E0AFF24C001390307823F0A9
:1045E000004365280CD006DC452809D046281DD09C
:1045F00047287FD13BE0662818D067287AD136E07B
:104600000021112F01DB112000E0781CCDE9000111
:1046100004A90CA8FFF7EEFCDDE90D010C9A4FF0A0
:10462000000B07F10109109200914EE04FF000409D
:104630000097CDE9011004A90CA8FFF7DBFCDDE928
:104640000D020C9B0F994FF0000B914610930092B6
:1046500011B9791C00EB0109B7EB090003D4C0F1D3
:10466000FF3B07F10109A9EB0700019042E0012F90
:1046700000DA01270021112F01DD112000E038466A
:10468000CDE9000104A90CA8FFF7B4FCDDE90D0198
:104690000C9A00914FF0000BB946109221070FD4ED
:1046A000009A4A4503DA914601E0A9F10109B9F1FE
:1046B000010F05DD109AA9F10101515C3029F4D0F8
:1046C000B84202DA10F1040F03DA0121CDE901103A
:1046D00010E0002803DC8344A9EB000102E0411C48
:1046E000494500DD8946A0EB0B00401C01904FF0CE
:1046F00000400290200705D40198484502DB4FF0A6
:10470000FF30019000208DF84B0002980DF14B070F
:10471000B0F1004F25D002200C902B200D90029874
:1047200000280CDA404202902D200D9007E00A216B
:104730000298FBF74DFF3031029007F8011D0C99EC
:10474000481E0C900029F2DC02980028EFD1791E57
:104750000D980870307800F0200040F0450007F810
:10476000020D11A8C01BC01D02901398007800B163
:10477000012000EB0901019801EBE071029801446E
:104780000398401A401E0390E00306D45346214686
:10479000179A039800F05CF805441398007818B154
:1047A0005246179990476D1CE00323D55346214686
:1047B000179A039800F04CF805441BE0BBF1000F7A
:1047C00007DB0098584504DD1098179910F80B0086
:1047D00001E0179930205246904701980BF1010BE8
:1047E000401E05F10105019004D12E205246179973
:1047F00090476D1CB9F10001A9F10109DEDC05E06B
:1048000017F8010B5246179990476D1C0299481EE4
:1048100002900029F4DC53462146179A03989EE63D
:104820002D0000002B000000200000002DE9F041C9
:10483000044600251E461746880404D405E0394680
:104840002020B0476D1C641EF9D52846BDE8F081D4
:104850002DE9F041044600251E469046C80301D5C7
:10486000302700E02027880404D505E0414638467B
:10487000B0476D1C641EF9D52846BDE8F0810A6872
:10488000531C0B601070704770B504460F4E19E052
:10489000A0892568C0050AD4A06820B1FFF7F4FFFD
:1048A000A089C00503D4206908B171688847A08930
:1048B000800503D4206A08B1716888477168204672
:1048C00088472C46002CE3D170BD0000000000207A
:1048D000806801E00068491E002801D00029F9DC49
:1048E00070478168002001E00968401C0029FBD165
:1048F000704770B50D46846800E024682CB12946E5
:10490000206A00F047F80028F7D1204670BD00006B
:10491000054910B5096828208847040002D02821DD
:10492000FBF78EFC204610BD00000020002211463F
:10493000AFF300802DE9F04190460E460446FFF7A4
:10494000E7FF134F05004FF00000B86015D0204678
:1049500000F062FD0146284600F004FD04000FD07F
:10496000B8F1000F10D0204600F056FD0446007844
:1049700050B12846FFF788FFBC600020BDE8F081F9
:104980002846FFF781FFF8E706B134602846F5E7CF
:104990000000002070B505000C4601D00CB108E005
:1049A00009B1012070BD002070BD0028FCD0641C3E
:1049B0006D1C2878FBF737FC06462078FBF733FCA4
:1049C00086422878F1D0FBF72EFC05462078FBF7CD
:1049D0002AFC281A70BD82B0CDE9000121F0004008
:1049E00001909DED000B02B051EC100B70470000E0
:1049F00008B54FF0FF338DF80000012269460348E7
:104A0000FDF7EAFB9DF8000008BD00001C22002015
:104A100010B5002821D0114B0022001F196803E0B7
:104A2000814203D80A4649680029F9D152B1136876
:104A3000841A9C4204D1006818441060104602E0B9
:104A4000506000E0186039B102680B1A934203D13C
:104A50000B681A4402604968416010BD4805002097
:104A600008B5FCF7A1FBFDF7E3FFFDF799FCFDF7A7
:104A700071FCFDF7F9FCFDF72BFDFDF745FDFDF79A
:104A8000AFFD0020FDF774FD0020FDF77DFD012541
:104A90000021102370A208460095FDF7BDFEFDF72A
:104AA00015FE7048FCF75AFF6F480068C16841F076
:104AB0001001C1606D480068C16841F01001C1601B
:104AC000EA026B496848FDF76FFB6AA0FEF736FB08
:104AD0006EA000F0E3FC4FF47A763046FCF73EFA25
:104AE0006CA16E48FBF7C3FB6D4C0EE06DA0FEF7AA
:104AF00025FBFBF743FF65A000F0D0FC3046FCF738
:104B00002DFA64A16548FBF7B2FBA0610028EDD047
:104B10006AA0FEF713FBC820FCF720FAFBF72EFF74
:104B20006EA000F0BBFC3046FCF718FA6FA10BE05A
:104B300071A0FEF703FBFBF721FF74A000F0AEFCB1
:104B40003046FCF70BFA75A15448FBF790FBA061C7
:104B50000028EDD074A0FEF7F1FAC820FCF7FEF9AA
:104B6000FBF70CFF774800F099FC40F6C410FCF707
:104B7000F5F975A14948FBF77AFBA06175A0FEF72E
:104B8000DDFAC820FCF7EAF9FBF7F8FE7CA0FEF797
:104B9000D5FA25704248002565702830FBF783FB65
:104BA000E0807D48FBF77FFB20817C48FBF77BFBA7
:104BB00060817B4800F072FC4FF41670FCF7CEF970
:104BC00000224FF480617748FCF7DAFAFBF7D6FE53
:104BD000A078012806D16420FCF7C0F9724800F0E3
:104BE0005DFCA57060780128F2D170A12B48FBF71D
:104BF0003EFBE0616FA12948FBF739FB2062E169C8
:104C0000002925D058B1FBF7CBFEFBF75DFFFDF780
:104C10003DFEFBF7B3FEE069D0B1206AD0B969A1CF
:104C20001E48FBF724FB606280B16BA0FEF786FA9A
:104C30000120FDF77DFE6420FCF790F96C4800F040
:104C40002DFC6CA0FEF77AFAFBF798FEE06908B934
:104C5000FBF794FE6570BBE76C6F636174696F6E00
:104C60003A000000D42100201C22002060220020F5
:104C7000D409002073746D333220696E6974206228
:104C80006567696E2E2E2E0A000000004154490D02
:104C90000A0000004669626F636F6D00D411002046
:104CA0000C000020517565727920696E666F206670
:104CB00061696C65642121210A000000312E676F53
:104CC000742074686520636F727265637420766502
:104CD0007273696F6E2E2E2E0A00000041542B4D08
:104CE000495043414C4C3F0D0A0000002B4D4950A8
:104CF00043414C4C3A203100676F74206E6F6E65F3
:104D0000204950206E6F772121210A0041542B4DFC
:104D1000495043414C4C3D310D0A00002B4D495048
:104D200043414C4C3A200000322E676F7420746867
:104D30006520495020616464726573732E2E2E0ABB
:104D400000000000407400082B484D434F4E204F98
:104D50004B000000332E487561776569436C6F75B1
:104D60006420636F6E6E656374656420737563633E
:104D700065737366756C6C792E2E2E0A0000000028
:104D800073746D333220696E697420737563636563
:104D900073732E2E2E0A00003403002034040020EA
:104DA0008873000800140240340100202B484D5243
:104DB000454300002253656E644172726179227D21
:104DC000220D0A00226361725F73746F70223A30A1
:104DD0007D7D5D7D220D0A007570646174652070B3
:104DE000726F706572746965732E2E2E0A00000052
:104DF000340200207265736574666C616720737598
:104E000063636573732E2E2E0A000000F0B50B301D
:104E1000154D20F007010024144A0FE003688B426F
:104E20000BD38B4205D95E1A43184768C3E9006764
:104E300000E04368136002C004E0021D106800280F
:104E4000ECD12046002802D1286808B10020F0BD2E
:104E5000064A07481060074A121A22F00702C0E902
:104E6000002401202860D7E74C05002048050020D9
:104E70006C230020686300202DE9F0410446087887
:104E80001A4E5B2801D0B1602BE00520E060481C81
:104E900000F0C2FA074600785D2806D0FFF738FD1B
:104EA000051EA06002D038460AE0781CBDE8F081FB
:104EB000FFF72EFD0028F9D0286045600546601CEC
:104EC00000F0AAFA0146284600F04CFA00F0A4FAD5
:104ED000040006D020782C28EAD020785D2802D063
:104EE000B4600020E2E7601CE0E700000000002062
:104EF0000178A1F13002092A01D811460AE0A1F196
:104F00004102052A01D8373904E0A1F16102052ADE
:104F10003FD857390A0110F8011FA1F13003092BBE
:104F200001D8303A0AE0A1F14103052B01D8373A04
:104F300004E0A1F16103052B2BD8573A11440A0173
:104F400010F8011FA1F13003092B01D8303A0AE013
:104F5000A1F14103052B01D8373A04E0A1F1610327
:104F6000052B16D8573A114440780901A0F13002B8
:104F7000092A01D8303904E0A0F14102052A02D8FB
:104F8000373908447047A0F16102052A01D8573922
:104F9000F7E70020704700002DE9F04106462DEDAF
:104FA0000C8B0C469FED598B9FED5ACB0878002552
:104FB0000127B0EE4CBAF0EE6CBAB0EE489AF0EEC3
:104FC000689A2D2802D19FED55BB4C1C20783028C3
:104FD00000D1641C20789FED53AB313808281AD8D3
:104FE00014F8010B3038FBF7AAFA41EC1D0BB0EEB8
:104FF0004A0AF0EE6A0A53EC102B51EC180BFBF73F
:105000002CFA53EC1D2BFBF781F941EC180B20789F
:1050100030380928E4D920782E282CD1607830281F
:1050200047D3392845D8B0EE4CDAF0EE6CDA641C80
:1050300014F8010B3038FBF782FA41EC1C0BB0EE90
:105040004A0AF0EE6A0A53EC102B51EC180BFBF7EE
:1050500004FA53EC1C2BFBF759F941EC180B53ECF9
:105060001D2B51EC190BFBF7F2F941EC190B2078D1
:1050700030380928DCD92078652801D0452818D196
:1050800014F8010F2B2802D02D280FD000E0641C4B
:105090006FF02F012078A0F13002092A09D805EB22
:1050A000850201EB42028518641CF3E74FF0FF37DD
:1050B000EDE705FB07F0FBF742FA53EC192BFBF782
:1050C00025F941EC110BB0EE4A0AF0EE6A0AFEF740
:1050D00083F8B0EE409AF0EE609A53EC182B51EC46
:1050E0001B0BFBF7BAF953EC192BFBF7B6F941ECA4
:1050F000100B86ED060BFBF733FA70610320F060AE
:105100002046BDEC0C8BBDE8F081000000000000E3
:1051100000000000000000000000F03F0000000060
:105120000000F0BF00000000000024402DE9F04125
:10513000054608782A4E7B2801D0B16033E006206E
:10514000E860481C00F068F9074600787D2813D015
:10515000FFF7DEFB041EA8600FD0384600F05CF9B4
:105160000146204600F03EF800F056F9002804D031
:105170002169002721622CE0781CBDE8F081B06035
:1051800011E0401C00F048F90146204600F0EAF822
:1051900000F042F9051EF0D028782C2805D0287898
:1051A0007D281BD0B5600020E7E7FFF7B1FB0028A2
:1051B000E3D0206044600446681C00F02DF90146ED
:1051C000204600F00FF800F027F90028D5D021691B
:1051D0002162276101783A29D3D0D0E7681CCCE757
:1051E000000000202DE9F0470C460646481C2278B6
:1051F00000215A4B222A07D000209C60BDE8F0878E
:10520000401C5C2A00D1401C0278222A02D00AB13C
:10521000491CF5D1481C19688847051EEED0601C52
:105220002C464FF4806788E05C2903D004F8011B0A
:10523000401C82E000F101084078722814D006DC9E
:10524000622809D0662809D06E2808D10AE074289F
:105250000CD0752803D10BE0082000E00C2004F8E6
:10526000010B68E00A20FAE70D20F8E70920F6E7CD
:1052700008F10100FFF73CFE8146A0F55C4008F113
:105280000408B84257D3B9F1000F54D0A9F55840DB
:10529000B84217D298F801005C284CD198F8020067
:1052A000752848D108F10300FFF722FEA0F55C4104
:1052B00008F10608B9423ED2C9F3090161F39F2003
:1052C00000F580390420B9F1800F02D20120641C5E
:1052D0002AE0B9F5006F02D20220A41C06E0B9F55D
:1052E000803F02D20320E41C0EE0241D022813D0CC
:1052F000032809D004281DD109F0BF0141F0800125
:1053000004F8011D4FEA991909F0BF0141F080012D
:1053100004F8011D4FEA991909F0BF0141F080011D
:1053200004F8011D4FEA99190D49095C41EA090188
:1053300004F8011D044408F101000178222902D07B
:1053400000297FF471AF002121700178222900D15A
:10535000401C0421C6E9031550E7000000000020AE
:10536000BC54000870B50C00054620D0042223A1CF
:105370002046FAF7BCFFE0B1052222A12046FAF749
:10538000B6FFC8B1042221A12046FAF7B0FFB8B198
:105390002078222819D02D2803D0A0F13001092926
:1053A00019D821462846BDE87040FFF7F5BD00201A
:1053B00070BD0220E86006E00020E860601D70BD5E
:1053C0000120E8606861201D70BD21462846BDE8C7
:1053D0007040FFF707BF5B2804D07B2808D00D483A
:1053E0008460E4E721462846BDE87040FFF744BDED
:1053F00021462846BDE87040FFF798BE6E756C6C7C
:105400000000000066616C736500000074727565D1
:10541000000000000000002000E0401C002804D034
:105420000178002901D02029F7D9704700B52DED6A
:10543000048B83B041EC190BFBF71EFA41EC180BFF
:1054400018EE100A18EE901A8DED008B002818BF88
:105450000120084320F00040C0F17F6000F1E040EF
:10546000C00F14D019EE101A19EE900A8DED009BA2
:10547000002918BF0121084320F00040C0F17F60DF
:1054800000F1E040C00F04BF0120FEF7ADFD51EC7C
:10549000180B03B0BDEC048B00BD000010B5044632
:1054A000FAF701FF214682B2BDE810404FF0FF330A
:1054B0000148FCF791BE00001C2200200000C0E063
:1054C000F0F8FC0000000000000000002F000000C9
:1054D000000700070000147F147F1400242A7F2A8D
:1054E000120062640813230036495522500000055B
:1054F00003000000001C224100000041221C0000AB
:1055000014083E08140008083E0808000000A060C7
:105510000000080808080800006060000000201073
:10552000080402003E5149453E0000427F40000011
:105530004261514946002141454B31001814127F08
:1055400010002745454539003C4A49493000017162
:1055500009050300364949493600064949291E0014
:1055600000363600000000563600000008142241C4
:105570000000141414141400004122140800020145
:1055800051090600324959513E007C1211127C002B
:105590007F49494936003E41414122007F41412235
:1055A0001C007F49494941007F09090901003E412A
:1055B00049497A007F0808087F0000417F410000C8
:1055C0002040413F01007F08142241007F404040BD
:1055D00040007F020C027F007F0408107F003E41E4
:1055E00041413E007F09090906003E4151215E000C
:1055F0007F091929460046494949310001017F01C7
:1056000001003F4040403F001F2040201F003F401E
:1056100038403F006314081463000708700807004F
:10562000615149454300007F41410000552A552AF8
:1056300055000041417F0000040201020400404087
:1056400040404000000102040000205454547800FF
:105650007F48444438003844444420003844444897
:105660007F00385454541800087E0901020018A421
:10567000A4A47C007F080404780000447D4000005E
:105680004080847D00007F102844000000417F405E
:1056900000007C04180478007C0804047800384476
:1056A00044443800FC242424180018242418FC0046
:1056B0007C0804040800485454542000043F44402B
:1056C00020003C4040207C001C2040201C003C402E
:1056D00030403C004428102844001CA0A0A07C00BE
:1056E0004464544C441414141414140000000000B6
:1056F000000000000000000000FC000000000002AC
:10570000000000000C020C020000000000000090ED
:10571000D0BCD0BC900003000300001824FE448CD1
:10572000000302070201001824D8B04C80000300D7
:10573000010201C038E438E000010202010202085F
:105740000600000000000000000000000000F80457
:1057500002000000010204000204F800000004023C
:105760000100009060F8609000000001000000203F
:1057700020FC2020000000010000000000000000CC
:10578000000806000000002020202020000000006B
:105790000000000000000000000002000000000007
:1057A00080601C0200040300000000F8040404F8F8
:1057B000000102020201000008FC000000000203D8
:1057C00002000018844424180003020202020008A8
:1057D000042424D80001020202010040B088FC80A9
:1057E000000000000302003C242424C40001020243
:1057F000020100F824242CC0000102020201000C66
:1058000004E41C0400000003000000D8242424D871
:105810000001020202010038444444F8000003027F
:105820000201000000100000000000020000000063
:105830000020000000000006000000002050880446
:105840000200000000010290909090900000000083
:10585000000000000204885020000201000000182F
:1058600004C4241800000002000000F804E494F8C6
:105870000001020202020000E09CF080000203002E
:1058800000030204FC2424D800020302020100F8F1
:105890000404040C0001020202010004FC0404F8E8
:1058A0000002030202010004FC24740C0002030243
:1058B00002030004FC24740C00020302000000F048
:1058C000080444CC4000010202010004FC2020FC3A
:1058D000040203000003020404FC040400020203A7
:1058E000020200000404FC04040604040300000493
:1058F000FC24D00C0402030200030204FC04000098
:1059000000020302020203FC3CC03CFC0003000353
:1059100000030004FC30C4FC04020302000300F88E
:10592000040404F80001020202010004FC2424180B
:1059300000020302000000F8848404F8000102025F
:1059400007050004FC246498000203020003021807
:105950002424448C000302020201000C04FC040C09
:105960000000020302000004FC0000FC040001022D
:10597000020100047C80E01C040000030000001C05
:10598000E03CE01C00000300030000049C609C0459
:1059900000020300030200041CE01C0400000203D8
:1059A0000200000C84641C040002030202030000D5
:1059B00000FE020200000007040400000E30C000D8
:1059C00000000000010200000202FE0000000404CA
:1059D00007000000040204000000000000000000B6
:1059E0000000000000080808080808000002000085
:1059F000000000000000000040A0A0C00000010264
:105A000002030204FC2020C0000003020201000087
:105A1000C02020600000010202020000C02024FC1F
:105A20000000010202030200C0A0A0C000000102A9
:105A30000202000020F824240400020302020000F5
:105A400040A0A0602000070A0A0A0404FC2020C02D
:105A5000000203020003020020E400000000020331
:105A6000020000000020E40000080808070000040D
:105A7000FC80E020200203020003020404FC00007A
:105A800000020203020200E020E020C00003000345
:105A900000030020E02020C00002030200030200F7
:105AA000C02020C00000010202010020E02020C030
:105AB00000080F0A02010000C02020E000000102DF
:105AC0000A0F0820E040202000020302000000002E
:105AD00060A0A020000002020203000020F82000C5
